:060000000A128A11122809
:10000800FE00030E83120313B8000408B9000A089F
:10001800BA007F08BB000A128A1128280A128A111E
:1000280015280A128A11FA27DB00D001D101D20162
:10003800D301D401D501D601D701D801D901DA01FC
:1000480083010A128A15672F8C1EE7298B13BC01BE
:10005800DA111819DA15831203135A1198185A1558
:1000680083120313DA1D5A19D3291A08B400340865
:10007800BC00D32906160A30FA000030FB000A1229
:100088008A1549260A128A1183120313B400B5018E
:100098003408C1003508C2004108B500B40134086D
:1000A800C1003508C2000B30FA000030FB000A120C
:1000B8008A1549260A128A1183120313B400B5015E
:1000C8003408C1070318C20A3508C2074208A50048
:1000D8004108A40035300A128A1157230A128A11DE
:1000E80083120313C701C80142084802031D7E2872
:1000F80041084702031821294808B5004708B400F9
:100108000310B40DB50D3408103EFA003508031875
:10011800013E003EFB000A128A1549260A128A117E
:1001280083120313B600B7013608C9003708CA009E
:100138004908B500B4013408C9003508CA004808A0
:10014800B5004708B4000310B40DB50D3408113ECE
:10015800FA0035080318013E003EFB000A128A1512
:1001680049260A128A1183120313B600B70136080A
:10017800C9070318CA0A3708CA074A08A500490860
:10018800A40045300A128A1157230A128A118312D1
:1001980003134808B5004708B4000310B40DB50DA3
:1001A8003408F73EFA0035080318013E7F3EFB008D
:1001B8000A128A1549260A128A1183120313B600F5
:1001C800B7013608C9003708CA004908B500B401A4
:1001D8003408C9003508CA004808B5004708B40003
:1001E8000310B40DB50D3408F83EFA0035080318AD
:1001F800013E7F3EFB000A128A1549260A128A111F
:1002080083120313B600B7013608C9070318CA0AD0
:100218003708CA074A08A5004908A4003D300A1251
:100228008A1157230A128A11013083120313C70750
:100238000318C80A0030C807782857300A128A11EC
:1002480057230A128A11831203130612E629C301DF
:100258000730430203184F298C1E3029DA11181968
:10026800DA15831203135A1198185A1583120313B7
:10027800DA1D5A1947291A08B4004308533E840066
:100288003408831380000130B4003408C3070730F2
:100298004302031C302953300A128A15E3250A1237
:1002A8008A11E62906160230FA000030FB00FC012C
:1002B8000A128A15D5260A128A110A128A158F2659
:1002C8000A128A118312031306120230FA00003050
:1002D800FB000A128A1549260A128A11AA3A031D36
:1002E800E6290D30FA000030FB000A128A1549266B
:1002F8000A128A11003A031DE62954300A128A119B
:1003080057230A128A11E62983120313C4010730FE
:1003180044020318E62944080A128A154D250A12D0
:100328008A1183120313B400B5013408A4003508F8
:10033800A50050300A128A1157230A128A11013077
:1003480083120313B4003408C4078B290A128A11D4
:100358005E260A128A117B0883120313A5007A0805
:10036800A40044300A128A1157230A128A110A1269
:100378008A1115270A128A117B0883120313A50014
:100388007A08A4004B300A128A1157230A128A11DC
:1003980057300A128A1157230A128A11E629831242
:1003A80003133C08613A03193E28033A03192B2921
:1003B800013A03195629073A03198829093A0319F2
:1003C800AA29E6298B17831203138C1C4A2B8C103D
:1003D8008B130619F6290530B4003408DB00D20166
:1003E800D001D101061D492B0130B4003408D207D1
:1003F80019305202031C492B5B080319072A0616F9
:100408000130DB02082A06120130D0070318D10A8E
:100418000030D107D201D001D1010A128A115E261B
:100428000A128A117B0883120313BE007A08BD00E2
:100438000A128A1115270A128A117B0883120313DC
:10044800C0007A08BF000A30FA000030FB000A1228
:100458008A1549260A128A1183120313B400B501BA
:100468003408CD003508CE004D08B500B401340875
:10047800CD003508CE000B30FA000030FB000A1220
:100488008A1549260A128A1183120313B400B5018A
:100498003408CD070318CE0A3508CE074D08013EAB
:1004A800C5004E080318013E003EC6004608B400C9
:1004B8003408CF000A30FA000030FB004F08B400BF
:1004C8003408FC000A128A15D5260A128A118312EA
:1004D80003134508B4003408CF000B30FA0000308D
:1004E800FB004F08B4003408FC000A128A15D52610
:1004F8000A128A11831203134E08B5004D08B4007E
:100508000310B40DB50D3408103ECD00350803189E
:10051800013E003ECE000C30FA000030FB000A120B
:100528008A1549260A128A1183120313B400B501E9
:100538003408CB003508CC004B08B500B4013408AA
:10054800CB003508CC000D30FA000030FB000A1251
:100558008A1549260A128A1183120313B400B501B9
:100568003408CB070318CC0A3508CC074B08013EE2
:10057800C5004C080318013E003EC6004608B400FA
:100588003408CF000C30FA000030FB004F08B400EC
:100598003408FC000A128A15D5260A128A11831219
:1005A80003134508B4003408CF000D30FA000030BA
:1005B800FB004F08B4003408FC000A128A15D5263F
:1005C8000A128A11831203134C08B5004B08B400B1
:1005D8000310B40DB50D3408F73ECB0035080318E9
:1005E800013E7F3ECC003E08B4003408CF004E08E0
:1005F800FB004D08FA004F08B4003408FC000A124A
:100608008A15D5260A128A11831203133D08B400ED
:100618003408CF004D08013EFA004E080318013E89
:10062800003EFB004F08B4003408FC000A128A158B
:10063800D5260A128A11831203134008B40034081D
:10064800CF004C08FB004B08FA004F08B4003408F0
:10065800FC000A128A15D5260A128A11831203137E
:100668003F08B4003408CF004B08013EFA004C089C
:100678000318013E003EFB004F08B4003408FC009C
:100688000A128A15D5260A128A118B1783120313A8
:100698003B08FF003A088A0039088400380E8300B6
:1006A800FE0E7E0E090083120313B2002430A6004A
:1006B8002608AB00013083120313B207FF3032075C
:1006C80084000A128A1100260A128A11A600260836
:1006D800B3003308031908002530330603197B2BB0
:1006E80033080A128A11F7250A128A115E2B83121F
:1006F8000313AF01B001B101862B31150130A600FB
:100708002608B207320884000A128A1100260A1243
:100718008A11303A0319812B912B320884000A126E
:100728008A1100260A128A110A128A152B240A1223
:100738008A11031CE12B83120313AF01B0010A30A5
:10074800F0000030F100831203133008F3002F0883
:10075800F2000A128A157D240A128A11710883127E
:100768000313B0007008AF00320884000A128A111F
:1007780000260A128A11D03EA600FF300318003066
:10078800A7002608AF070318B00A2708B0070130EA
:10079800A6002608B207320884000A128A11002629
:1007A8000A128A110A128A152B240A128A11031CAA
:1007B800E12BA32BB116B117FE2B013083120313C3
:1007C800B207FF30320784000A128A1100260A1283
:1007D8008A11B300003A03196C2D583A0319DE2B1D
:1007E8003C3A0319FE2B0D3A0319FE2B113A031953
:1007F800DF2B5E2B83120313B11B1A2C2B088400EA
:1008080083130008AD00840A0008AE000230A60079
:100818002608AB07AE1F6F2C0330A6002608B104CC
:10082800AD09AE09AD0A0319AE0A6F2C2B08840076
:1008380083130008AD00840A0008AE000230A60049
:100848002608AB076F2CB301B30A0530330603192A
:10085800782C3308A6002607013E84000A128A1164
:1008680000260A128A11A7000A128A1100260A1203
:100878008A11A80028082E02031D442C27082D02DF
:10088800031C782C0130A6002608B307292CB301D5
:10089800B30A043033060319782C3308A600260758
:1008A8000B3E84000A128A1100260A128A11A70038
:1008B8000A128A1100260A128A11A80028082E0294
:1008C800031D682C27082D02031C782C0130A60074
:1008D8002608B3074D2C31088039003A0319272C14
:1008E800803A03194B2C782C2F0830040319862CD6
:1008F800310803390319862CFF30AF070318B00AF3
:10090800FF30B0073308A600A701A61BA7032708D6
:10091800803AA8003008803A2802031D952C2F0839
:1009280026020318A52C831203133308A600A70177
:10093800A61BA7032608AF022708031CB003B002B2
:10094800A92C83120313AF01B001311DCA2C310841
:1009580003390319B52C2D300A128A11F7250A120A
:100968008A11831203132F0830040319EA2C30303C
:100978000A128A11F7250A128A11FF30831203130B
:10098800AF070318B00AFF30B007B72C2F083004A0
:100998000319E02C20300A128A11F7250A128A114D
:1009A800FF3083120313AF070318B00AFF30B007F4
:1009B8002F083004031DCE2C310803390319EA2C03
:1009C8002D300A128A11F7250A128A11831203138D
:1009D8003308A6002608AC00592D0A30F80000306C
:1009E800F9002C08A6002607013E84000A128A1185
:1009F80000260A128A11F0000A128A1100260A1229
:100A08008A11F1002E08F3002D08F2000A128A114B
:100A1800BE270A128A117108FB007008FA000A1230
:100A28008A157E250A128A117808303E831203132C
:100A3800A7002708522D2C08A60026070B3E840085
:100A48000A128A1100260A128A11F0000A128A1163
:100A580000260A128A11F1002E08F3002D08F20070
:100A68000A128A11BE270A128A1170080F398312D6
:100A78000313A7002708A900B11A442D2430452DD7
:100A88001330A6002608AA0029082A0784000A129B
:100A98008A1100260A128A11A6002608B300330814
:100AA8000A128A11F7250A128A11FF3083120313DA
:100AB800A6002608AC072C0A03195E2B31088039DA
:100AC800003A0319F12C803A03191F2D532D532D89
:100AD800080083160313A90083120313DA10831680
:100AE8000313291C7A2D83120313DA1483160313B4
:100AF8002903031D822D831203135A100330831612
:100B080003132906031D8B2D831203135A1483160E
:100B1800031311080139A000110C0139A100110CAF
:100B2800A200A20C220C0139A300110E0139A40065
:100B3800110CA500250C0139A600140CA700270CE0
:100B4800013926042404230421042004031D8B2DC9
:100B58009115141CAD2D83128C1DAF2D5A1CB82D68
:100B6800831603139116BB2D831603139112831258
:100B78000313DA1CC32D831603131116C62D83160F
:100B88000313111283120313130883160313A0000F
:100B98002008A8001418CE2D28080800831603136F
:100BA800A400A501210892002008A2000230031029
:100BB800A20DFF3E031DDB2D0310220DF83E7839F0
:100BC800A3002308A5000430A2002208A5072408D2
:100BD800A2002208A5072508831203139200831692
:100BE80003138C140800F000831203130C1EF82D55
:060BF800700899000800DE
:100C000006308A000408840A820700340134003464
:100C10000A34003464340034E834033410342734A4
:100C20000134003410340034003401340034103402
:100C30003034313432343334343435343634373478
:100C400038343934413442344334443445344634FE
:100C5000003430343134323433343434353436348F
:100C6000373438343934613462346334643465344D
:100C700066340034493425343034353464340D342A
:100C80000A34003425343034343478340D340A34A2
:100C90000034493425343034343478343B3400342F
:100CA0002534303434347834003425345834203406
:100CB00000344F344B34003458340034831203135F
:100CC000A201A3010A128A15C1240A128A11F00195
:100CD000F00A80300A128A15B0250A128A11F00132
:100CE000F00AE5300A128A15B0250A128A110A1292
:100CF0008A159E240A128A11F001F00A81300A1224
:100D00008A15B0250A128A1101300A128A11BB26EF
:100D10000A128A11FC007C0883120313A00003301E
:100D20000A128A11BB260A128A11FC007C0883125F
:100D30000313A1000A128A15E42483120313200866
:100D4000FC00FD017C08A2007D08A3002208FD0034
:100D5000FC017C08A2007D08A3002108FC00FD0125
:100D60007C08A2070318A30A7D08A3072308FB0039
:100D70002208FA000800F90083120313DA10791828
:100D8000DA147903031DC72E831203135A1003309C
:100D90007906031DCE2E831203135A1483160313F0
:100DA00011080139F000110C0139F100110CF200A9
:100DB000F20C720C0139F300110E0139F400110C20
:100DC000F500750C0139F600140CF700770C0139A9
:100DD00076047404730471047004031DCE2E9115FF
:100DE000141CF02E83128C1DF22E5A1CFB2E83161F
:100DF00003139116FE2E831603139112831203130D
:100E0000DA1C062F831603131116092F83160313FA
:100E10001112831203131308F0007008F8008316F0
:100E2000031314180F2F780808000A128A15C1241A
:100E30000A128A11F001F00A80300A128A15B025D0
:100E40000A128A11F001F00AE3300A128A15B0255D
:100E50000A128A110A128A159E240A128A11F001B6
:100E6000F00A81300A128A15B0250A128A1101305F
:100E70000A128A11BB260A128A11FC007C0883120E
:100E80000313A00003300A128A11BB260A128A112A
:100E9000FC007C0883120313A1000A128A15E424C3
:100EA000831203132008FC00FD017C08A2007D08CA
:100EB000A3002208FD00FC017C08A2007D08A3001D
:100EC0002108FC00FD017C08A2070318A30A7D0885
:100ED000A3072308FB002208FA000800023083164B
:100EE0000313AA000030AB000A128A151D270A124C
:100EF0008A1183160313B0003008B100AA303106FE
:100F0000031908000230AA000030AB00AA30B0007C
:100F10003008AC000A128A15B2270A128A110A3068
:100F200083160313AA000030AB00AC010A128A1525
:100F3000B2270A128A110B3083160313AA0000305D
:100F4000AB00AC010A128A15B2270A128A110C30C2
:100F500083160313AA000030AB00AC010A128A15F5
:100F6000B2270A128A110D3083160313AA0000302B
:100F7000AB00AC010A128A15B2270800F501F60190
:100F8000700871040319F52FF701F70AF11BD42F2C
:100F900001300310F00DF10DFF3E031DC92F01308C
:100FA000F4007408F707C62F01300310F50DF60D95
:100FB000FF3E031DD52F71087302031DE12F70083A
:100FC0007202031CEA2F7008F2027108031CF3037B
:100FD000F302751401300310F10CF00CFF3E031DF9
:100FE000EB2F0130F702031DD42F7608F1007508AE
:060FF000F00008000534CA
:10185600F100F0013A3071020318372C3030710272
:10186600031C372CF001F00A700C080083120313D6
:101876001408F039083894009416043083160313BC
:1018860093009417871507160800831603138C1602
:101896000C121815831603178711831603139A0162
:1018A6000C3099001812831203139817831603132A
:1018B600981683120313181608000A128A150725AC
:1018C6000A128A1583160313A001A00A80300A1291
:1018D6008A1516260A128A1583160313A001A00A72
:1018E600FE300A128A1516260A128A150A128A1557
:1018F6002A250800F401F501701C872C7208F407EC
:101906000318F50A7308F50701300310F20DF30DFD
:10191600FF3E031D882C01300310F10CF00CFF3E36
:10192600031D8F2C70087104031D7F2C7508F100B0
:101936007408F00008008316031311080139F0003B
:10194600110C0139F100110CF200F20C720C013984
:10195600F300110E0139F400110CF500750C013974
:10196600F600140CF700770C01397604740473043E
:1019760071047004031D9E2C911408008316031332
:1019860011080139F000110C0139F100110CF200B7
:10199600F20C720C0139F300110E0139F400110C2E
:1019A600F500750C0139F600140CF700770C0139B7
:1019B60076047404730471047004031DC12C11149D
:1019C60008008316031311080139F000110C0139C0
:1019D600F100110CF200F20C720C0139F300110E39
:1019E6000139F400110CF500750C0139F600140CE0
:1019F600F700770C013976047404730471047004DB
:101A0600031DE42C11150800831603131108013970
:101A1600A000110C0139A100110CA200A20C220C8D
:101A26000139A300110E0139A400110CA500250CE3
:101A36000139A600140CA700270C0139260424043A
:101A4600230421042004031D072D11140800831606
:101A5600031311080139A000110C0139A100110C62
:101A6600A200A20C220C0139A300110E0139A40018
:101A7600110CA500250C0139A600140CA700270C93
:101A8600013926042404230421042004031D2A2DDD
:101A960011150800FB000A128A15C1240A128A15BC
:101AA600F001F00AD0300A128A15B0250A128A15FA
:101AB600F001F00A7B080A128A15B0250A128A1567
:101AC6000A128A159E240A128A15F001F00AD130EC
:101AD6000A128A15B0250A128A1500300A128A11CE
:101AE600BB260A128A15FA007A08FC000A128A1521
:101AF600E4247C080800780879040319AB2DFD015D
:101B0600FD0AF91B922D01300310F80DF90DFF3E69
:101B1600031D872D0130FC007C08FD07842D790804
:101B26007B02031D982D78087A02031CA02D7808E5
:101B3600FA027908031CFB03FB0201300310F90CBF
:101B4600F80CFF3E031DA12D0130FD02031D922D51
:101B56007B08F9007A08F8000800F90083160313D9
:101B660011080139F100110C0139F200110CF300D2
:101B7600F30C730C0139F400110E0139F500110C48
:101B8600F600760C0139F700140CF800780C0139D0
:101B960077047504740472047104031DB12D790869
:101BA600831203139300831603131418D62D70089B
:101BB6000319DF2D111BDD2D83128C190800DF2D73
:101BC600FB00FC0107307C02031808000A128A1584
:101BD600C1240A128A15F001F00AD0300A128A15B9
:101BE600B0250A128A15F001F00A7C080A128A1535
:101BF600B0250A128A15F001F00A7C087B07FA0064
:101C06007A088400831300080A128A15B0250A127E
:101C16008A150A128A15E4240A128A150130FA0076
:101C26007A08FC07E52D83160313A900110801396C
:101C3600A100110C0139A200110CA300A30C230C66
:101C46000139A400110E0139A500110CA600260CBD
:101C56000139A700140CA800280C01392704250413
:101C6600240422042104031D192E290883120313B8
:101C760093008316031314183C2E20080319452ECF
:101C8600111B432E83128C190800452E7B08FC007D
:101C96007C0883120313A1007A08FC007C08A200CA
:101CA6000A128A15C1240A128A15F001A0300A12F6
:101CB6008A15B0250A128A15F0018312031321082A
:101CC6000A128A15B0250A128A15F0018312031327
:101CD60022080A128A15B0250A128A150A128A15CE
:101CE600C1240A128A15F001A1300A128A15B025FC
:101CF6000A128A1500300A128A11BB260A128A15A0
:101D0600FC007C0883120313A0000A128A15E4243F
:101D160083120313200808000230FA000030FB008B
:101D26000A128A1549260A128A1583120313A3007A
:101D36002308A400AA302406031908000230FA007A
:101D46000030FB00AA30A3002308FC000A128A1503
:101D5600D5260A128A150A30FA000030FB00FC016B
:101D66000A128A15D5260A128A150B30FA00003097
:101D7600FB00FC010A128A15D5260A128A150C30B8
:101D8600FA000030FB00FC010A128A15D5260A1259
:101D96008A150D30FA000030FB00FC010A128A1584
:101DA600D52608007B08FD007D0883120313A000DA
:101DB6007A08FD007D08A1000A128A15C1240A12BC
:101DC6008A15F001A0300A128A15B0250A128A1562
:101DD600F0018312031320080A128A15B0250A128D
:101DE6008A15F0018312031321080A128A15B025F9
:101DF6000A128A15F0017C080A128A15B0250A1201
:101E06008A150A128A15E4240A128A150A128A15F4
:101E1600C1240A128A15F001A0300A128A15B025CB
:101E26000A128A1583160313111B092F0A128A1523
:101E3600E4240800831603132B08AC002C08AE001C
:101E46002A08AC002C08AF000A128A1507250A12C8
:101E56008A1583160313A001A0300A128A151626C6
:101E66000A128A1583160313A0012E080A128A1570
:101E760016260A128A1583160313A0012F080A12C2
:101E86008A1516260A128A150A128A1507250A12B3
:101E96008A1583160313A001A1300A128A15162685
:101EA6000A128A1500300A128A116D250A128A153D
:101EB60083160313AC002C08AD000A128A152A25D6
:101EC600831603132D0808005130831603138F0061
:101ED600C0308B008501860183160317091083160F
:101EE600031306158312031306120A128A154824D1
:101EF6000A128A150A128A1539240A128A15073017
:101F060083160313B3007C30B200B20B882FB30BD9
:101F1600882F00000A128A116E270A128A150A12E1
:101F26008A1560240A128A15823083160313B300B9
:101F3600DD30B200B20B9D2FB30B9D2F05308316FB
:101F46000313B2003208A000FA30B3003308A10030
:101F560002300A128A11D2250A128A15B12F831667
:101F660003132B08AD002D08AE002A08AD002D087E
:101F7600AF000A128A1507250A128A15831603135B
:101F8600A001A0300A128A1516260A128A1583168F
:101F96000313A0012E080A128A1516260A128A159C
:101FA60083160313A0012F080A128A1516260A1291
:101FB6008A1583160313A0012C080A128A15162601
:101FC6000A128A150A128A152A250A128A150A126F
:101FD6008A1507250A128A1583160313A001A03055
:101FE6000A128A1516260A128A1583160313111B5E
:0A1FF600EA2F0A128A152A250800B6
:04400E00F4ECFFFED1
:00000001FF
