:060000000A128A11122809
:10000800FE00030E83120313B8000408B9000A089F
:10001800BA007F08BB000A128A1129280A128A111D
:1000280015280A128A11FB27E000D401D501D60150
:10003800D701D801D901DA01DB01DC01DD01DE01DC
:10004800DF0183010A128A15A02F8C1E7D2A8B13CB
:10005800BE01DF111819DF15831203135F119818F9
:100068005F1583120313DF1D5F19692A1A08B4008C
:100078003408BE00692A0616BC01BD010A30FA0020
:100088000030FB000A128A150E250A128A11831203
:100098000313B400B5013408C3003508C40043088D
:1000A800B500B4013408C3003508C4000B30FA00A9
:1000B8000030FB000A128A150E250A128A118312D3
:1000C8000313B400B5013408C3070318C40A35087C
:1000D800C4074408A5004308A40035300A128A1151
:1000E8000F240A128A1183120313C901CA01440892
:1000F8004A02031D812843084902031824294A0893
:10010800B5004908B4000310B40DB50D3408103E0D
:10011800FA0035080318013E003EFB000A128A1552
:100128000E250A128A1183120313B600B701360886
:10013800CB003708CC004B08B500B4013408CB001D
:100148003508CC004A08B5004908B4000310B40DBE
:10015800B50D3408113EFA0035080318013E003E7B
:10016800FB000A128A150E250A128A11831203133C
:10017800B600B7013608CB070318CC0A3708CC07F6
:100188004C08A5004B08A4005C300A128A110F2401
:100198000A128A11831203134A08B5004908B400E9
:1001A8000310B40DB50D3408F73EFA0035080318EE
:1001B800013E7F3EFB000A128A150E250A128A119B
:1001C80083120313B600B7013608CB003708CC00FA
:1001D8004B08B500B4013408CB003508CC004A08F8
:1001E800B5004908B4000310B40DB50D3408F83E45
:1001F800FA0035080318013E7F3EFB000A128A15F3
:100208000E250A128A1183120313B600B7013608A5
:10021800CB070318CC0A3708CC074C08A5004B08B5
:10022800A4005C300A128A110F240A128A110130C4
:1002380083120313C9070318CA0A0030CA077B28A8
:100248006A300A128A110F240A128A11F930FA0048
:10025800FF30FB000A128A150E250A128A11831232
:100268000313B400B5013408D1003508D200520890
:10027800A5005108A40056300A128A110F240A1248
:100288008A11FA30FA00FF30FB000A128A150E258F
:100298000A128A1183120313B400B5013408D1007D
:1002A8003508D2005208A5005108A4004A300A12A5
:1002B8008A110F240A128A11FB30FA00FF30FB0062
:1002C8000A128A150E250A128A1183120313B40022
:1002D800B5013408D1003508D2005208A5005108EC
:1002E800A40050300A128A110F240A128A11FC3015
:1002F800FA00FF30FB000A128A150E250A128A112D
:1003080083120313B400B5013408D1003508D200B4
:100318005208A5005108A40050300A128A110F246F
:100328000A128A11FD30FA00FF30FB000A128A1502
:100338000E250A128A1183120313B400B50134087A
:10034800D1003508D2005208A5005108A400443055
:100358000A128A110F240A128A113A300A128A11D3
:100368000F240A128A1168300A128A110F240A12FD
:100378008A118312031306127C2AC501073045022D
:100388000318E5298C1EC629DF111819DF158312F9
:1003980003135F1198185F1583120313DF1D5F198C
:1003A800DD291A08B4004508583E84003408831330
:1003B80080000130B4003408C50707304502031C2B
:1003C800C62958300A128A156C240A128A117C2A06
:1003D80006160230FA000030FB00FC010A128A15EA
:1003E80054250A128A110A128A11AB260A128A1196
:1003F8008312031306120230FA000030FB000A12BF
:100408008A150E250A128A11AA3A031D7C2A0D3074
:10041800FA000030FB000A128A150E250A128A110A
:10042800003A031D7C2A65300A128A110F240A1229
:100438008A117C2A83120313C60107304602031867
:100448007C2A46080A128A15D6230A128A118312B0
:100458000313B400B5013408A4003508A5006130C1
:100468000A128A110F240A128A1101308312031307
:10047800B4003408C607212A0A128A1543270A122B
:100488008A117B0883120313A5007A08A4003D3063
:100498000A128A110F240A128A110A128A1534269E
:1004A8000A128A117B0883120313A5007A08A40094
:1004B8005C300A128A110F240A128A1168300A1253
:1004C8008A110F240A128A117C2A831203133E0808
:1004D800613A03193F28033A0319C129013A03195C
:1004E800EC29073A03191E2A093A0319402A7C2ADB
:1004F8008B17831203138C1C022C8C108B13061978
:10050800922A831603138C16053083120313B40042
:100518003408E000D701D401D501C62A8316031395
:100528008C120330FA000030FB000A128A150E25DF
:100538000A128A11AA3A0319A62A0A128A1125262A
:100548000A128A11013083120313B4003408D70742
:1005580007305702031CBF2A60080319B72A06167A
:100568000130E002B82A06120130D4070318D50A70
:100578000030D507D701540855040319C62AD401F9
:10058800D5015F165F1E012C5F120A128A154327D8
:100598000A128A117B0883120313C0007A08BF006D
:1005A8000A128A1534260A128A117B088312031349
:1005B800C2007A08C1000A30FA000030FB000A12B3
:1005C8008A150E250A128A1183120313B400B50185
:1005D8003408CF003508D0004F08B500B4013408FE
:1005E800CF003508D0000B30FA000030FB000A12AB
:1005F8008A150E250A128A1183120313B400B50155
:100608003408CF070318D00A3508D0074F08013E31
:10061800C70050080318013E003EC8004808B4004F
:100628003408D3000A30FA000030FB005308B40045
:100638003408FC000A128A1554250A128A118312FA
:1006480003134708B4003408D3000B30FA00003015
:10065800FB005308B4003408FC000A128A1554251C
:100668000A128A11831203135008B5004F08B40008
:100678000310B40DB50D3408103ECF00350803182B
:10068800013E003ED0000C30FA000030FB000A1298
:100698008A150E250A128A1183120313B400B501B4
:1006A8003408CD003508CE004D08B500B401340833
:1006B800CD003508CE000D30FA000030FB000A12DC
:1006C8008A150E250A128A1183120313B400B50184
:1006D8003408CD070318CE0A3508CE074D08013E69
:1006E800C7004E080318013E003EC8004808B40081
:1006F8003408D3000C30FA000030FB005308B40073
:100708003408FC000A128A1554250A128A11831229
:1007180003134708B4003408D3000D30FA00003042
:10072800FB005308B4003408FC000A128A1554254B
:100738000A128A11831203134E08B5004D08B4003B
:100748000310B40DB50D3408F73ECD003508031875
:10075800013E7F3ECE004008B4003408D300500864
:10076800FB004F08FA005308B4003408FC000A12D2
:100778008A1554250A128A11831203133F08B400FC
:100788003408D3004F08013EFA0050080318013E10
:10079800003EFB005308B4003408FC000A128A1516
:1007A80054250A128A11831203134208B40034082C
:1007B800D3004E08FB004D08FA005308B400340873
:1007C800FC000A128A1554250A128A11831203138F
:1007D8004108B4003408D3004D08013EFA004E0821
:1007E8000318013E003EFB005308B4003408FC0027
:1007F8000A128A1554250A128A118B1783120313B9
:100808003B08FF003A088A0039088400380E830044
:10081800FE0E7E0E090083120313B2002430A600D8
:100828002608AB00013083120313B207FF303207EA
:1008380084000A128A1100270A128A11A6002608C3
:10084800B300330803190800253033060319332C85
:1008580033080A128A15AC220A128A11162C83123E
:100868000313AF01B001B1013E2C31150130A600D0
:100878002608B207320884000A128A1100270A12D1
:100888008A11303A0319392C492C320884000A128B
:100898008A1100270A128A110A128A15B4220A122A
:1008A8008A11031C992C83120313AF01B0010A307B
:1008B800F0000030F100831203133008F3002F0812
:1008C800F2000A128A1506230A128A117108831285
:1008D8000313B0007008AF00320884000A128A11AE
:1008E80000270A128A11D03EA600FF3003180030F4
:1008F800A7002608AF070318B00A2708B007013079
:10090800A6002608B207320884000A128A110027B6
:100918000A128A110A128A15B4220A128A11031CB1
:10092800992C5B2CB116B117B62C01308312031326
:10093800B207FF30320784000A128A1100270A1210
:100948008A11B300003A0319242E583A0319962C39
:100958003C3A0319B62C0D3A0319B62C113A03196F
:10096800972C162C83120313B11BD22C2B0884004E
:1009780083130008AD00840A0008AE000230A60008
:100988002608AB07AE1F272D0330A6002608B104A2
:10099800AD09AE09AD0A0319AE0A272D2B0884004C
:1009A80083130008AD00840A0008AE000230A600D8
:1009B8002608AB07272DB301B30A05303306031900
:1009C800302D3308A6002607013E84000A128A113A
:1009D80000270A128A11A7000A128A1100270A1290
:1009E8008A11A80028082E02031DFC2C27082D02B6
:1009F800031C302D0130A6002608B307E12CB301F3
:100A0800B30A043033060319302D3308A60026072D
:100A18000B3E84000A128A1100270A128A11A700C5
:100A28000A128A1100270A128A11A80028082E0221
:100A3800031D202D27082D02031C302D0130A60090
:100A48002608B307052D31088039003A0319DF2C31
:100A5800803A0319032D302D2F08300403193E2D39
:100A68003108033903193E2DFF30AF070318B00AC8
:100A7800FF30B0073308A600A701A61BA703270865
:100A8800803AA8003008803A2802031D4D2D2F080F
:100A9800260203185D2D831203133308A600A7014D
:100AA800A61BA7032608AF022708031CB003B00241
:100AB800612D83120313AF01B001311D822D31085E
:100AC800033903196D2D2D300A128A15AC220A122A
:100AD8008A11831203132F0830040319A22D303012
:100AE8000A128A15AC220A128A11FF3083120313E4
:100AF800AF070318B00AFF30B0076F2D2F08300476
:100B08000319982D20300A128A15AC220A128A116C
:100B1800FF3083120313AF070318B00AFF30B00782
:100B28002F083004031D862D310803390319A22D1F
:100B38002D300A128A15AC220A128A118312031365
:100B48003308A6002608AC00112E0A30F800003041
:100B5800F9002C08A6002607013E84000A128A1113
:100B680000270A128A11F0000A128A1100270A12B5
:100B78008A11F1002E08F3002D08F2000A128A15D6
:100B8800D2240A128A117108FB007008FA000A12AE
:100B98008A1507240A128A117808303E8312031333
:100BA800A70027080A2E2C08A60026070B3E84005B
:100BB8000A128A1100270A128A11F0000A128A11F1
:100BC80000270A128A11F1002E08F3002D08F200FE
:100BD8000A128A15D2240A128A1170080F39831250
:100BE8000313A7002708A900B11AFC2D2430FD2DF6
:100BF8001330A6002608AA0029082A0784000A122A
:100C08008A1100270A128A11A6002608B3003308A1
:100C18000A128A15AC220A128A11FF3083120313B2
:100C2800A6002608AC072C0A0319162C31088039AF
:100C3800003A0319A92D803A0319D72D0B2E0B2E34
:100C4800080001300A128A15D6230A128A11831263
:100C58000313A2002208A300FA30FA00FF30FB00B9
:100C68002308A2002208FC000A128A1554250A1239
:100C78008A1102300A128A15D6230A128A1183129F
:100C88000313A2002208A300F930FA00FF30FB008A
:100C98002308A2002208FC000A128A1554250A1209
:100CA8008A1104300A128A15D6230A128A1183126D
:100CB8000313A2002208A300FB30FA00FF30FB0058
:100CC8002308A2002208FC000A128A1554250A12D9
:100CD8008A1105300A128A15D6230A128A1183123C
:100CE8000313A2002208A300FC30FA00FF30FB0027
:100CF8002308A2002208FC000A128A1554250A12A9
:100D08008A1106300A128A15D6230A128A1183120A
:100D18000313A2002208A300FD30FA00FF30FB00F5
:100D28002308A2002208FC000A128A1554250A1278
:100D38008A110330FA000030FB00AA308312031333
:100D4800A2002208FC000A128A1554250800023065
:100D5800FA000030FB000A128A150E250A128A11C1
:100D680083120313A3002308A400AA30240603193E
:100D780008000230FA000030FB00AA30A300230864
:100D8800FC000A128A1554250A128A110330FA0047
:100D98000030FB00FC010A128A1554250A128A1138
:100DA8000A30FA000030FB00FC010A128A155425AB
:100DB8000A128A110B30FA000030FB00FC010A12FB
:100DC8008A1554250A128A110C30FA000030FB00EB
:100DD800FC010A128A1554250A128A110D30FA00EC
:0E0DE8000030FB00FC010A128A155425080099
:100E000007308A000408840A820700340134003461
:100E10000A34003464340034E834033410342734A2
:100E20000134003410340034003401340034103400
:100E30003034313432343334343435343634373476
:100E400038343934413442344334443445344634FC
:100E5000003430343134323433343434353436348D
:100E6000373438343934613462346334643465344B
:100E700066340034493425343034353464340D3428
:100E80000A340034493425343034343478343B3433
:100E90000034253430343234783409340034253485
:100EA0003034323478342034003425343034323421
:100EB00078342F34003425343034323478343A34B2
:100EC0000034253430343434783400342534583404
:100ED000203400344F344B340034583400345A3406
:100EE000003483160313A90083120313DF10831643
:100EF0000313291C7E2F83120313DF14831603139D
:100F00002903031D862F831203135F1003308316FA
:100F100003132906031D8F2F831203135F148316F7
:100F2000031311080139A000110C0139A100110CA3
:100F3000A200A20C220C0139A300110E0139A40059
:100F4000110CA500250C0139A600140CA700270CD4
:100F5000013926042404230421042004031D8F2FB7
:100F60009115141CB12F83128C1DB32F5F1CBC2F45
:100F7000831603139116BF2F831603139112831246
:100F80000313DF1CC72F831603131116CA2F8316F2
:100F90000313111283120313130883160313A00003
:100FA0002008A8001418D22F28080800831603135D
:100FB000A400A501210892002008A200023003101D
:100FC000A20DFF3E031DDF2F0310220DF83E7839DE
:100FD000A3002308A5000430A2002208A5072408C6
:100FE000A2002208A5072508831203139200831686
:080FF00003138C140800053402
:10155800F000831203130C1EAD2A700899000800CE
:10156800F100F0013A3071020318C02A30307102DC
:10157800031CC02AF001F00A700C08008312031340
:101588001408F039083894009416043083160313AD
:1015980093009417871507160800831603138C12F7
:1015A8000C121815831603178711831603139A0153
:1015B8000C3099001812831203139817831603131B
:1015C800981683120313181608000A128A15902316
:1015D8000A128A1583160313A001A00A80300A1282
:1015E8008A159F240A128A1583160313A001A00ADC
:1015F800FE300A128A159F240A128A150A128A15C1
:10160800B3230800F401F501701C102B7208F407CD
:101618000318F50A7308F50701300310F20DF30DEE
:10162800FF3E031D112B01300310F10CF00CFF3E9F
:10163800031D182B70087104031D082B7508F10091
:101648007408F00008008316031311080139F0002C
:10165800110C0139F100110CF200F20C720C013975
:10166800F300110E0139F400110CF500750C013965
:10167800F600140CF700770C01397604740473042F
:1016880071047004031D272B11140800831603131B
:1016980011080139F000110C0139F100110CF200A8
:1016A800F20C720C0139F300110E0139F400110C1F
:1016B800F500750C0139F600140CF700770C0139A8
:1016C80076047404730471047004031D4A2B111505
:1016D80008008316031311080139F000110C0139B1
:1016E800F100110CF200F20C720C0139F300110E2A
:1016F8000139F400110CF500750C0139F600140CD1
:10170800F700770C013976047404730471047004CB
:10171800031D6D2B9114080083160313110801395A
:10172800A000110C0139A100110CA200A20C220C7E
:101738000139A300110E0139A400110CA500250CD4
:101748000139A600140CA700270C0139260424042B
:10175800230421042004031D902B11140800831670
:10176800031311080139A000110C0139A100110C53
:10177800A200A20C220C0139A300110E0139A40009
:10178800110CA500250C0139A600140CA700270C84
:10179800013926042404230421042004031DB32B47
:1017A80011150800FB000A128A1527230A128A1548
:1017B800F001F00AD0300A128A1539240A128A1563
:1017C800F001F00A7B080A128A1539240A128A15D0
:1017D8000A128A156D230A128A15F001F00AD1300F
:1017E8000A128A1539240A128A1500300A128A1533
:1017F8008D260A128A15FA007A08FC000A128A1540
:101808004A237C080800780879040319342CFD0160
:10181800FD0AF91B1B2C01300310F80DF90DFF3ED2
:10182800031D102C0130FC007C08FD070D2C7908E5
:101838007B02031D212C78087A02031C292C7808C6
:10184800FA027908031CFB03FB0201300310F90CB0
:10185800F80CFF3E031D2A2C0130FD02031D1B2C32
:101868007B08F9007A08F8000800F90083160313CA
:1018780011080139F100110C0139F200110CF300C3
:10188800F30C730C0139F400110E0139F500110C39
:10189800F600760C0139F700140CF800780C0139C1
:1018A80077047504740472047104031D3A2C7908D2
:1018B8008312031393008316031314185F2C700804
:1018C8000319682C111B662C83128C190800682CCC
:1018D800FB00FC0107307C02031808000A128A1575
:1018E80027230A128A15F001F00AD0300A128A1545
:1018F80039240A128A15F001F00A7C080A128A159E
:1019080039240A128A15F001F00A7C087B07FA00CC
:101918007A088400831300080A128A1539240A12E7
:101928008A150A128A154A230A128A150130FA0002
:101938007A08FC076E2C83160313A90011080139D5
:10194800A100110C0139A200110CA300A30C230C57
:101958000139A400110E0139A500110CA600260CAE
:101968000139A700140CA800280C01392704250404
:10197800240422042104031DA22C29088312031322
:101988009300831603131418C52C20080319CE2CB2
:10199800111BCC2C83128C190800CE2CF501F601F2
:1019A800700871040319092DF701F70AF11BE82CD7
:1019B80001300310F00DF10DFF3E031DDD2C013049
:1019C800F4007408F707DA2C01300310F50DF60D52
:1019D800FF3E031DE92C71087302031DF52C7008E6
:1019E8007202031CFE2C7008F2027108031CF30338
:1019F800F302751401300310F10CF00CFF3E031DC7
:101A0800FF2C0130F702031DE82C7608F100750859
:101A1800F00008007B08FC007C0883120313A10077
:101A28007A08FC007C08A2000A128A1527230A12E9
:101A38008A15F001A0300A128A1539240A128A156B
:101A4800F0018312031321080A128A1539240A1295
:101A58008A15F0018312031322080A128A15392401
:101A68000A128A150A128A1527230A128A15F00102
:101A7800A1300A128A1539240A128A1500300A126E
:101A88008A158D260A128A15FC007C088312031316
:101A9800A0000A128A154A2383120313200808009B
:101AA8007B08FD007D0883120313A0007A08FD005F
:101AB8007D08A1000A128A1527230A128A15F00147
:101AC800A0300A128A1539240A128A15F0018312E5
:101AD800031320080A128A1539240A128A15F001FC
:101AE8008312031321080A128A1539240A128A1547
:101AF800F0017C080A128A1539240A128A150A127A
:101B08008A154A230A128A150A128A1527230A12E5
:101B18008A15F001A0300A128A1539240A128A158A
:101B280083160313111B882D0A128A154A230800ED
:101B3800831603132B08AC002C08AE002A08AC004F
:101B48002C08AF000A128A1590230A128A158316E8
:101B58000313A001A0300A128A159F240A128A15BD
:101B680083160313A0012E080A128A159F240A124D
:101B78008A1583160313A0012F080A128A159F24B9
:101B88000A128A150A128A1590230A128A158316D0
:101B98000313A001A1300A128A159F240A128A157C
:101BA80000300A128A1171270A128A158316031344
:101BB800AC002C08AD000A128A15B3238316031350
:101BC8002D080800831603132B08AD002D08AE005E
:101BD8002A08AD002D08AF000A128A1590230A12B0
:101BE8008A1583160313A001A0300A128A159F24B0
:101BF8000A128A1583160313A0012E080A128A15E1
:101C08009F240A128A1583160313A0012F080A12AB
:101C18008A159F240A128A1583160313A0012C081B
:101C28000A128A159F240A128A150A128A15B323E2
:101C38000A128A150A128A1590230A128A1583161F
:101C48000313A001A0300A128A159F240A128A15CC
:101C580083160313111B1E2E0A128A15B3230800BC
:101C68000A128A1527230A128A15F001F00A803011
:101C78000A128A1539240A128A15F001F00AE3308B
:101C88000A128A1539240A128A150A128A156D232E
:101C98000A128A15F001F00A81300A128A153924CD
:101CA8000A128A1501300A128A158D260A128A1517
:101CB800FC007C0883120313A00003300A128A1563
:101CC8008D260A128A15FC007C0883120313A100D2
:101CD8000A128A154A23831203132008FC00FD0107
:101CE8007C08A2007D08A3002208FD00FC017C08F6
:101CF800A2007D08A3002108FC00FD017C08A207C2
:101D08000318A30A7D08A3072308FB002208FA008A
:101D18000800F90083120313DF107918DF14790320
:101D2800031D992E831203135F1003307906031DD8
:101D3800A02E831203135F148316031311080139AD
:101D4800F000110C0139F100110CF200F20C720CC8
:101D58000139F300110E0139F400110CF500750C6E
:101D68000139F600140CF700770C01397604740475
:101D7800730471047004031DA02E9115141CC22E47
:101D880083128C1DC42E5F1CCD2E8316031391164F
:101D9800D02E83160313911283120313DF1CD82E3F
:101DA800831603131116DB2E8316031311128312E5
:101DB80003131308F0007008F800831603131418AF
:101DC800E12E78080800023083160313AA000030B9
:101DD800AB000A128A159C250A128A15831603136A
:101DE800B0003008B100AA303106031908000230EB
:101DF800AA000030AB00AA30B0003008AC000A12CC
:101E08008A15E6250A128A15033083160313AA00D9
:101E18000030AB00AC010A128A15E6250A128A15B1
:101E28000A3083160313AA000030AB00AC010A1273
:101E38008A15E6250A128A150B3083160313AA00A1
:101E48000030AB00AC010A128A15E6250A128A1581
:101E58000C3083160313AA000030AB00AC010A1241
:101E68008A15E6250A128A150D3083160313AA006F
:101E78000030AB00AC010A128A15E625080083126F
:101E88000313A201A3010A128A1527230A128A152D
:101E9800F001F00A80300A128A1539240A128A15CC
:101EA800F001F00AE5300A128A1539240A128A1557
:101EB8000A128A156D230A128A15F001F00A813078
:101EC8000A128A1539240A128A1501300A128A154B
:101ED8008D260A128A15FC007C0883120313A000C1
:101EE80003300A128A158D260A128A15FC007C080E
:101EF80083120313A1000A128A154A2383120313BB
:101F08002008FC00FD017C08A2007D08A30022082F
:101F1800FD00FC017C08A2007D08A3002108FC004C
:101F2800FD017C08A2070318A30A7D08A30723085C
:101F3800FB002208FA0008005130831603138F00B3
:101F4800C0308B008501860183160317091083169C
:101F5800031306158312031306160330831603139F
:101F6800B4008A30B3005530B200B20BB92FB30BAE
:101F7800B92FB40BB92F8312031306120A128A154C
:101F8800D1220A128A150A128A15C2220A128A1541
:101F9800073083160313B3007C30B200B20BD22F84
:101FA800B30BD22F00000A128A15E7260A128A15E7
:101FB8000A128A15E9220A128A1583120313DF16F8
:101FC8005F12823083160313B300DD30B200B20B08
:101FD800EB2FB30BEB2F053083160313B200320837
:101FE800A000FA30B3003308A10002300A128A11A7
:081FF800D6270A128A15FF2FFB
:04400E00F4ECFFFED1
:00000001FF
