:060000000A128A11122809
:10000800FE00030E83120313B8000408B9000A089F
:10001800BA007F08BB000A128A1128280A128A111E
:1000280015280A128A11FC27E000D501D601D7014C
:10003800D801D901DA01DB01DC01DD01DE01DF01D4
:1000480083010A128A15EF2D8C1E642A8B13BE01B8
:10005800DF111819DF15831203135F1198185F1544
:1000680083120313DF1D5F19502A1A08B4003408DD
:10007800BE00502A0616BF010A30FA000030FB0005
:100088000A128A1515250A128A1183120313B4005D
:10009800B5013408C5003508C6004508B500B401E7
:1000A8003408C5003508C6000B30FA000030FB00E4
:1000B8000A128A1515250A128A1183120313B4002D
:1000C800B5013408C5070318C60A3508C607460827
:1000D800A5004508A40035300A128A1133250A12F2
:1000E8008A1183120313D101D20146085202031D5B
:1000F8007F2845085102031822295208B5005108E3
:10010800B4000310B40DB50D3408103EFA003508DC
:100118000318013E003EFB000A128A1515250A1233
:100128008A1183120313B600B7013608CB003708CB
:10013800CC004B08B500B4013408CB003508CC001E
:100148005208B5005108B4000310B40DB50D3408B9
:10015800113EFA0035080318013E003EFB000A1262
:100168008A1515250A128A1183120313B600B701DE
:100178003608CB070318CC0A3708CC074C08A5006B
:100188004B08A40045300A128A1133250A128A1135
:10019800831203135208B5005108B4000310B40DBC
:1001A800B50D3408F73EFA0035080318013E7F3EC6
:1001B800FB000A128A1515250A128A1183120313E5
:1001C800B600B7013608CB003708CC004B08B5009D
:1001D800B4013408CB003508CC005208B5005108EA
:1001E800B4000310B40DB50D3408F83EFA00350814
:1001F8000318013E7F3EFB000A128A1515250A12D4
:100208008A1183120313B600B7013608CB07031807
:10021800CC0A3708CC074C08A5004B08A4003D3091
:100228000A128A1133250A128A1101308312031324
:10023800D1070318D20A0030D20779280330FA0010
:100248000030FB000A128A1515250A128A1183123A
:100258000313B400B5013408A4003508A5005430D0
:100268000A128A1133250A128A110330FA00003063
:10027800FB000A128A1515250A128A118312031324
:10028800B4003408BF00D101D2013F08B400B50161
:1002980035085202031D52293408510203189E29B9
:1002A80007304402031897295208F1005108F0005A
:1002B8000730F2000030F3000A128A15E8220A1209
:1002C8008A118312031344087007B40071080318D5
:1002D800710AB5003408743EFA0035080318013E67
:1002E800FF3EFB000A128A1515250A128A1183128D
:1002F8000313B600B7013608BC003708BD003D0837
:10030800A5003C08A40055300A128A1133250A12A8
:100318008A11013083120313B4003408C40707306C
:100328004402031C58290130D1070318D20A0030AF
:10033800D20749295B300A128A1133250A128A1119
:10034800831203130612632AC701073047020318F2
:10035800CC298C1EAD29DF111819DF158312031360
:100368005F1198185F1583120313DF1D5F19C429E5
:100378001A08B4004708583E8400340883138000E4
:100388000130B4003408C70707304702031CAD2901
:1003980058300A128A1573240A128A11632A06161B
:1003A8000230A3000030A400A5010A128A155B25BB
:1003B8000A128A110A128A15ED260A128A11831264
:1003C800031306120230FA000030FB000A128A15E5
:1003D80015250A128A11AA3A031D632A0D30FA005C
:1003E8000030FB000A128A1515250A128A11003AF4
:1003F800031D632A58300A128A1133250A128A11FA
:10040800632A83120313C801073048020318632ABA
:1004180048080A128A15DD230A128A118312031367
:10042800B400B5013408A4003508A50050300A12FC
:100438008A1133250A128A11013083120313B4007A
:100448003408C807082A0A128A15A3270A128A112B
:100458007B0883120313A5007A08A40044300A120B
:100468008A1133250A128A110A128A153A260A12A3
:100478008A117B0883120313A5007A08A4004B3065
:100488000A128A1133250A128A115B300A128A115C
:1004980033250A128A11632A831203133E08613A2C
:1004A80003193E28033A0319A829013A0319D32945
:1004B800073A0319052A093A0319272A632A8B17C9
:1004C800831203138C1C262D8C108B130619732A88
:1004D8000530B4003408E000D701D501D601061D67
:1004E800252D0130B4003408D70719305702031CF2
:1004F800252D60080319E32B05306006031DDD2B4D
:100508000330FA000030FB000A128A1515250A127A
:100518008A1183120313B4003408D3005308B400BB
:10052800B5013408F0003508F1000730F20000305A
:10053800F3000A128A15E8220A128A117008743E1A
:1005480083120313A30071080318013EFF3EA400A1
:1005580001300A128A15DD230A128A118312031345
:10056800B6003608A5000A128A155B250A128A11F8
:10057800831203135308B400B5013408F00035089A
:10058800F1000730F2000030F3000A128A15E82261
:100598000A128A117008753E83120313A3007108AA
:1005A8000318013EFF3EA40002300A128A15DD231B
:1005B8000A128A1183120313B6003608A5000A121C
:1005C8008A155B250A128A11831203135308B40093
:1005D800B5013408F0003508F1000730F2000030AA
:1005E800F3000A128A15E8220A128A117008763E68
:1005F80083120313A30071080318013EFF3EA400F1
:1006080004300A128A15DD230A128A118312031391
:10061800B6003608A5000A128A155B250A128A1147
:10062800831203135308B400B5013408F0003508E9
:10063800F1000730F2000030F3000A128A15E822B0
:100648000A128A117008773E83120313A3007108F7
:100658000318013EFF3EA40005300A128A15DD2367
:100668000A128A1183120313B6003608A5000A126B
:100678008A155B250A128A11831203135308B400E2
:10068800B5013408F0003508F1000730F2000030F9
:10069800F3000A128A15E8220A128A117008783EB5
:1006A80083120313A30071080318013EFF3EA40040
:1006B80006300A128A15DD230A128A1183120313DF
:1006C800B6003608A5000A128A155B250A128A1197
:1006D800831203135308B400B5013408F000350839
:1006E800F1000730F2000030F3000A128A15E82200
:1006F8000A128A117008793E83120313A300710845
:100708000318013EFF3EA4000A30FA000030FB0047
:100718000A128A1515250A128A1183120313B600C4
:100728003608A5000A128A155B250A128A11831257
:1007380003135308B400B5013408F0003508F1007C
:100748000730F2000030F3000A128A15E8220A1274
:100758008A1170087A3E83120313A30071080318E4
:10076800013EFF3EA4000B30FA000030FB000A12E5
:100778008A1515250A128A1183120313B600360842
:10078800A5000A128A155B250A128A110130831204
:100798000313B4003408D3070330A3000030A400C7
:1007A8005308B4003408A5000A128A155B250A12FA
:1007B8008A118312031306160130E002E42B061295
:1007C8000130D5070318D60A0030D607D701D5015E
:1007D800D6010A128A15A3270A128A117B088312E6
:1007E8000313C1007A08C0000A128A153A260A12B1
:1007F8008A117B0883120313C3007A08C2000A30E7
:10080800FA000030FB000A128A1515250A128A110F
:1008180083120313B400B5013408CF003508D000A3
:100828004F08B500B4013408CF003508D0000B30AC
:10083800FA000030FB000A128A1515250A128A11DF
:1008480083120313B400B5013408CF070318D00A84
:100858003508D0074F08013EC90050080318013E6B
:10086800003ECA004A08B4003408D4000A30A30085
:100878000030A4005408B4003408A5000A128A15F0
:100888005B250A128A11831203134908B40034083D
:10089800D4000B30A3000030A4005408B40034087E
:1008A800A5000A128A155B250A128A1183120313FE
:1008B8005008B5004F08B4000310B40DB50D340846
:1008C800103ECF0035080318013E003ED0000C3022
:1008D800FA000030FB000A128A1515250A128A113F
:1008E80083120313B400B5013408CD003508CE00D7
:1008F8004D08B500B4013408CD003508CE000D30E0
:10090800FA000030FB000A128A1515250A128A110E
:1009180083120313B400B5013408CD070318CE0AB7
:100928003508CE074D08013EC9004E080318013EA0
:10093800003ECA004A08B4003408D4000C30A300B2
:100948000030A4005408B4003408A5000A128A151F
:100958005B250A128A11831203134908B40034086C
:10096800D4000D30A3000030A4005408B4003408AB
:10097800A5000A128A155B250A128A11831203132D
:100988004E08B5004D08B4000310B40DB50D340879
:10099800F73ECD0035080318013E7F3ECE004108E2
:1009A800B4003408D4005008A4004F08A300540829
:1009B800B4003408A5000A128A155B250A128A11A8
:1009C800831203134008B4003408D4004F08013ED2
:1009D800A30050080318013E003EA4005408B400C8
:1009E8003408A5000A128A155B250A128A11831297
:1009F80003134308B4003408D4004E08A4004D087B
:100A0800A3005408B4003408A5000A128A155B250F
:100A18000A128A11831203134208B4003408D4005E
:100A28004D08013EA3004E080318013E003EA400F5
:100A38005408B4003408A5000A128A155B250A1266
:100A48008A118B17831203133B08FF003A088A00A8
:100A580039088400380E8300FE0E7E0E09008312CA
:100A68000313B2002430A6002608AB00013083121D
:100A78000313B207FF30320784000A128A150020D8
:100A88000A128A11A6002608B300330803190800C1
:100A9800253033060319572D33080A128A158E227A
:100AA8000A128A113A2D83120313AF01B001B10162
:100AB800622D31150130A6002608B20732088400DD
:100AC8000A128A1500200A128A11303A03195D2D7C
:100AD8006D2D320884000A128A1500200A128A1124
:100AE8000A128A1596220A128A11031CBD2D831236
:100AF8000313AF01B0010A30F0000030F100831297
:100B080003133008F3002F08F2000A128A15E822AE
:100B18000A128A11710883120313B0007008AF001B
:100B2800320884000A128A1500200A128A11D03E5F
:100B3800A600FF3003180030A7002608AF070318E7
:100B4800B00A2708B0070130A6002608B207320805
:100B580084000A128A1500200A128A110A128A15BC
:100B680096220A128A11031CBD2D7F2DB116B117CA
:100B7800DA2D013083120313B207FF3032078400E5
:100B88000A128A1500200A128A11B300003A0319C2
:100B9800482F583A0319BA2D3C3A0319DA2D0D3A61
:100BA8000319DA2D113A0319BB2D3A2D83120313B9
:100BB800B11BF62D2B08840083130008AD00840AAE
:100BC8000008AE000230A6002608AB07AE1F4B2E69
:100BD8000330A6002608B104AD09AE09AD0A031911
:100BE800AE0A4B2E2B08840083130008AD00840A3C
:100BF8000008AE000230A6002608AB074B2EB30152
:100C0800B30A053033060319542E3308A600260705
:100C1800013E84000A128A1500200A128A11A700D0
:100C28000A128A1500200A128A11A80028082E0222
:100C3800031D202E27082D02031C542E0130A60068
:100C48002608B307052EB301B30A04303306031987
:100C5800542E3308A60026070B3E84000A128A1574
:100C680000200A128A11A7000A128A1500200A1207
:100C78008A11A80028082E02031D442E27082D02D9
:100C8800031C542E0130A6002608B307292E31086C
:100C98008039003A0319032E803A0319272E542E5F
:100CA8002F0830040319622E310803390319622E04
:100CB800FF30AF070318B00AFF30B0073308A600AB
:100CC800A701A61BA7032708803AA8003008803A86
:100CD8002802031D712E2F0826020318812E831265
:100CE80003133308A600A701A61BA7032608AF0213
:100CF8002708031CB003B002852E83120313AF012B
:100D0800B001311DA62E310803390319912E2D305B
:100D18000A128A158E220A128A11831203132F08C7
:100D280030040319C62E30300A128A158E220A1290
:100D38008A11FF3083120313AF070318B00AFF307C
:100D4800B007932E2F0830040319BC2E20300A1246
:100D58008A158E220A128A11FF3083120313AF07F5
:100D68000318B00AFF30B0072F083004031DAA2E5D
:100D7800310803390319C62E2D300A128A158E221E
:100D88000A128A11831203133308A6002608AC003E
:100D9800352F0A30F8000030F9002C08A600260785
:100DA800013E84000A128A1500200A128A11F000F6
:100DB8000A128A1500200A128A11F1002E08F3007F
:100DC8002D08F2000A128A15D9240A128A1171080C
:100DD800FB007008FA000A128A150E240A128A11FA
:100DE8007808303E83120313A70027082E2F2C08FB
:100DF800A60026070B3E84000A128A1500200A1254
:100E08008A11F0000A128A1500200A128A11F100CC
:100E18002E08F3002D08F2000A128A15D9240A12A6
:100E28008A1170080F3983120313A7002708A90035
:100E3800B11A202F2430212F1330A6002608AA002B
:100E480029082A0784000A128A1500200A128A1122
:100E5800A6002608B30033080A128A158E220A1241
:100E68008A11FF3083120313A6002608AC072C0A48
:100E780003193A2D31088039003A0319CD2E803AEA
:100E88000319FB2E2F2F2F2F080083160313A900F9
:100E980083120313DF1083160313291C562F8312A2
:100EA8000313DF14831603132903031D5E2F831214
:100EB80003135F100330831603132906031D672FDE
:100EC800831203135F148316031311080139A0005A
:100ED800110C0139A100110CA200A20C220C01393D
:100EE800A300110E0139A400110CA500250C01392D
:100EF800A600140CA700270C013926042404230497
:100F080021042004031D672F9115141C892F8312B7
:100F18008C1D8B2F5F1C942F831603139116972F0C
:100F280083160313911283120313DF1C9F2F83165A
:100F380003131116A22F831603131112831203131E
:100F4800130883160313A0002008A8001418AA2F5A
:100F580028080800831603132B08AD002D08AE00DF
:100F68002A08AD002D08AF000A128A1572230A124A
:100F78008A1183160313A001A0300A128A15A62429
:100F88000A128A1183160313A0012E080A128A1561
:100F9800A6240A128A1183160313A0012F080A1225
:100FA8008A15A6240A128A1183160313A0012C0895
:100FB8000A128A15A6240A128A110A128A1595237A
:100FC8000A128A110A128A1572230A128A118316C2
:100FD8000313A001A0300A128A15A6240A128A1146
:100FE80083160313111BE62F0A128A15952308008E
:020FF8000534BE
:1010000008308A000408840A82070034013400345E
:101010000A34003464340034E834033410342734A0
:1010200001340034103400340034013400341034FE
:101030003034313432343334343435343634373474
:1010400038343934413442344334443445344634FA
:10105000003430343134323433343434353436348B
:101060003734383439346134623463346434653449
:1010700066340034493425343034353464340D3426
:101080000A34003425343034343478340D340A349E
:101090000034493425343034343478343B3400342B
:1010A0002534303434347834003425345834203402
:1010B00000345A342534783400344F344B340034FF
:0410C000583400346C
:10151C00F000831203130C1E8F2A70089900080028
:10152C00F100F0013A3071020318A22A3030710236
:10153C00031CA22AF001F00A700C0800831203139A
:10154C001408F039083894009416043083160313E9
:10155C0093009417871507160800831603138C162F
:10156C000C121815831603178711831603139A018F
:10157C000C30990018128312031398178316031357
:10158C00981683120313181608000A128A15722370
:10159C000A128A1583160313A001A00A80300A12BE
:1015AC008A15A6240A128A1583160313A001A00A11
:1015BC00FE300A128A15A6240A128A150A128A15F6
:1015CC0095230800F401F501701CF22A7208F40747
:1015DC000318F50A7308F50701300310F20DF30D2B
:1015EC00FF3E031DF32A01300310F10CF00CFF3EFB
:1015FC00031DFA2A70087104031DEA2A7508F1000C
:10160C007408F00008008316031311080139F00068
:10161C00110C0139F100110CF200F20C720C0139B1
:10162C00F300110E0139F400110CF500750C0139A1
:10163C00F600140CF700770C01397604740473046B
:10164C0071047004031D092B9114080083160313F5
:10165C0011080139F000110C0139F100110CF200E4
:10166C00F20C720C0139F300110E0139F400110C5B
:10167C00F500750C0139F600140CF700770C0139E4
:10168C0076047404730471047004031D2C2B111460
:10169C0008008316031311080139F000110C0139ED
:1016AC00F100110CF200F20C720C0139F300110E66
:1016BC000139F400110CF500750C0139F600140C0D
:1016CC00F700770C01397604740473047104700408
:1016DC00031D4F2B11150800831603131108013934
:1016EC00A000110C0139A100110CA200A20C220CBB
:1016FC000139A300110E0139A400110CA500250C11
:10170C000139A600140CA700270C01392604240467
:10171C00230421042004031D722B111408008316CA
:10172C00031311080139A000110C0139A100110C8F
:10173C00A200A20C220C0139A300110E0139A40045
:10174C00110CA500250C0139A600140CA700270CC0
:10175C00013926042404230421042004031D952BA1
:10176C001115080083160313A400A501210892008B
:10177C002008A20002300310A20DFF3E031DC12B56
:10178C000310220DF83E7839A3002308A50004307D
:10179C00A2002208A5072408A2002208A5072508F4
:1017AC00831203139200831603138C140800FB009E
:1017BC000A128A152C230A128A15F001F00AD0306D
:1017CC000A128A1540240A128A15F001F00A7B08C5
:1017DC000A128A1540240A128A150A128A1509233C
:1017EC000A128A15F001F00AD1300A128A15402427
:1017FC000A128A1500300A128A1593260A128A15C3
:10180C00FA007A08FC000A128A154F237C0808009B
:10181C007808790403193B2CFD01FD0AF91B222CD5
:10182C0001300310F80DF90DFF3E031D172C01308C
:10183C00FC007C08FD07142C79087B02031D282C66
:10184C0078087A02031C302C7808FA027908031CF9
:10185C00FB03FB0201300310F90CF80CFF3E031DD7
:10186C00312C0130FD02031D222C7B08F9007A0873
:10187C00F8000800F9008316031311080139F10070
:10188C00110C0139F200110CF300F30C730C01393B
:10189C00F400110E0139F500110CF600760C01392B
:1018AC00F700140CF800780C0139770475047404F3
:1018BC0072047104031D412C7908831203139300E5
:1018CC00831603131418662C700803196F2C111B44
:1018DC006D2C83128C1908006F2CFB00FC01073057
:1018EC007C02031808000A128A152C230A128A1586
:1018FC00F001F00AD0300A128A1540240A128A1517
:10190C00F001F00A7C080A128A1540240A128A1582
:10191C00F001F00A7C087B07FA007A088400831334
:10192C0000080A128A1540240A128A150A128A150E
:10193C004F230A128A150130FA007A08FC07752C1D
:10194C0083160313A90011080139A100110C0139E8
:10195C00A200110CA300A30C230C0139A400110E3E
:10196C000139A500110CA600260C0139A700140C96
:10197C00A800280C0139270425042404220421047E
:10198C00031DA92C29088312031393008316031338
:10199C001418CC2C20080319D52C111BD32C831212
:1019AC008C190800D52CF501F60170087104031987
:1019BC00102DF701F70AF11BEF2C01300310F00D7D
:1019CC00F10DFF3E031DE42C0130F4007408F70701
:1019DC00E12C01300310F50DF60DFF3E031DF02C2C
:1019EC0071087302031DFC2C70087202031C052D78
:1019FC007008F2027108031CF303F3027514013032
:101A0C000310F10CF00CFF3E031D062D0130F70204
:101A1C00031DEF2C7608F1007508F00008007B0818
:101A2C00FC007C0883120313A1007A08FC007C08DC
:101A3C00A2000A128A152C230A128A15F001A03072
:101A4C000A128A1540240A128A15F0018312031314
:101A5C0021080A128A1540240A128A15F0018312F1
:101A6C00031322080A128A1540240A128A150A1234
:101A7C008A152C230A128A15F001A1300A128A1534
:101A8C0040240A128A1500300A128A1593260A126B
:101A9C008A15FC007C0883120313A0000A128A1515
:101AAC004F23831203132008080083120313240806
:101ABC00FD007D08A6002308FD007D08A7000A1282
:101ACC008A152C230A128A15F001A0300A128A15E5
:101ADC0040240A128A15F0018312031326080A12F5
:101AEC008A1540240A128A15F00183120313270861
:101AFC000A128A1540240A128A15F0018312031364
:101B0C0025080A128A1540240A128A150A128A1507
:101B1C004F230A128A150A128A152C230A128A15C7
:101B2C00F001A0300A128A1540240A128A15831675
:101B3C000313111B912D0A128A154F2308008316CB
:101B4C0003132B08AC002C08AE002A08AC002C08A0
:101B5C00AF000A128A1572230A128A158316031310
:101B6C00A001A0300A128A15A6240A128A1583161F
:101B7C000313A0012E080A128A15A6240A128A152C
:101B8C0083160313A0012F080A128A15A6240A1221
:101B9C008A150A128A1572230A128A1583160313E0
:101BAC00A001A1300A128A15A6240A128A15003047
:101BBC000A128A1149270A128A1583160313AC00DC
:101BCC002C08AD000A128A159523831603132D08D1
:101BDC0008005130831603138F00C0308B00850131
:101BEC008601831603170910831603130615831237
:101BFC00031306120A128A15B3220A128A150A1244
:101C0C008A15A4220A128A15073083160313B3000F
:101C1C007C30B200B20B102EB30B102E00000A1247
:101C2C008A1547270A128A150A128A15CB220A121C
:101C3C008A15823083160313B300DD30B200B20B69
:101C4C00252EB30B252E053083160313B200320854
:101C5C00A000FA30B3003308A10002300A128A1532
:101C6C00B8230A128A15392E0A128A152C230A1245
:101C7C008A15F001F00A80300A128A1540240A12E3
:101C8C008A15F001F00AE3300A128A1540240A1270
:101C9C008A150A128A1509230A128A15F001F00A0C
:101CAC0081300A128A1540240A128A1501300A1250
:101CBC008A1593260A128A15FC007C0883120313DA
:101CCC00A00003300A128A1593260A128A15FC000A
:101CDC007C0883120313A1000A128A154F23831266
:101CEC0003132008FC00FD017C08A2007D08A30062
:101CFC002208FD00FC017C08A2007D08A30021083D
:101D0C00FC00FD017C08A2070318A30A7D08A307A9
:101D1C002308FB002208FA000800F90083120313C1
:101D2C00DF107918DF147903031D9F2E8312031320
:101D3C005F1003307906031DA62E831203135F1464
:101D4C008316031311080139F000110C0139F1004D
:101D5C00110CF200F20C720C0139F300110E013966
:101D6C00F400110CF500750C0139F600140CF70099
:101D7C00770C013976047404730471047004031D28
:101D8C00A62E9115141CC82E83128C1DCA2E5F1CF6
:101D9C00D32E831603139116D62E8316031391128A
:101DAC0083120313DF1CDE2E831603131116E12E90
:101DBC00831603131112831203131308F000700817
:101DCC00F800831603131418E72E78080800023065
:101DDC00FA000030FB000A128A1515250A128A1522
:101DEC0083120313A8002808A900AA302906031996
:101DFC0008000230A3000030A400AA30A800280874
:101E0C00A5000A128A155B250A128A150330831263
:101E1C000313A3000030A400A5010A128A155B2548
:101E2C000A128A150A3083120313A3000030A4008F
:101E3C00A5010A128A155B250A128A150B3083122A
:101E4C000313A3000030A400A5010A128A155B2518
:101E5C000A128A150C3083120313A3000030A4005D
:101E6C00A5010A128A155B250A128A150D308312F8
:101E7C000313A3000030A400A5010A128A155B25E8
:101E8C000800023083160313AA000030AB000A12BC
:101E9C008A15A5250A128A1583160313B00030087B
:101EAC00B100AA303106031908000230AA00003034
:101EBC00AB00AA30B0003008AC000A128A11AE2771
:101ECC000A128A15033083160313AA000030AB00E4
:101EDC00AC010A128A11AE270A128A150A3083162F
:101EEC000313AA000030AB00AC010A128A11AE2712
:101EFC000A128A150B3083160313AA000030AB00AC
:101F0C00AC010A128A11AE270A128A150C308316FC
:101F1C000313AA000030AB00AC010A128A11AE27E1
:101F2C000A128A150D3083160313AA000030AB0079
:101F3C00AC010A128A11AE27080083120313A20106
:101F4C00A3010A128A152C230A128A15F001F00A31
:101F5C0080300A128A1540240A128A15F001F00A00
:101F6C00E5300A128A1540240A128A150A128A15BB
:101F7C0009230A128A15F001F00A81300A128A1517
:101F8C0040240A128A1501300A128A1593260A1265
:101F9C008A15FC007C0883120313A00003300A127C
:101FAC008A1593260A128A15FC007C0883120313E7
:101FBC00A1000A128A154F23831203132008FC0078
:101FCC00FD017C08A2007D08A3002208FD00FC0195
:101FDC007C08A2007D08A3002108FC00FD017C0800
:101FEC00A2070318A30A7D08A3072308FB002208F5
:041FFC00FA000800DF
:04400E00F4ECFFFED1
:00000001FF
