:060000000A128A11122809
:10000800FE00030E83120313B8000408B9000A089F
:10001800BA007F08BB000A128A1129280A128A111D
:1000280015280A128A11FB27E000D401D501D60150
:10003800D701D801D901DA01DB01DC01DD01DE01DC
:10004800DF0183010A128A158B2C8C1E602B8B13FF
:10005800BC01DF111819DF15831203135F119818FB
:100068005F1583120313DF1D5F194C2B1A08B400A8
:100078003408BC004C2B0616C101C2010A30FA0034
:100088000030FB000A128A1565230A128A118312AE
:100098000313B400B5013408C3003508C40043088D
:1000A800B500B4013408C3003508C4000B30FA00A9
:1000B8000030FB000A128A1565230A128A1183127E
:1000C8000313B400B5013408C3070318C40A35087C
:1000D800C4074408A5004308A40035300A128A1151
:1000E800F1240A128A1183120313D201D30144089E
:1000F8005302031D81284308520203182429530878
:10010800B5005208B4000310B40DB50D3408103E04
:10011800FA0035080318013E003EFB000A128A1552
:1001280065230A128A1183120313B600B701360831
:10013800C9003708CA004908B500B4013408C90025
:100148003508CA005308B5005208B4000310B40DAE
:10015800B50D3408113EFA0035080318013E003E7B
:10016800FB000A128A1565230A128A1183120313E7
:10017800B600B7013608C9070318CA0A3708CA07FC
:100188004A08A5004908A40045300A128A11F1243A
:100198000A128A11831203135308B5005208B400D7
:1001A8000310B40DB50D3408F73EFA0035080318EE
:1001B800013E7F3EFB000A128A1565230A128A1146
:1001C80083120313B600B7013608C9003708CA00FE
:1001D8004908B500B4013408C9003508CA005308F5
:1001E800B5005208B4000310B40DB50D3408F83E3C
:1001F800FA0035080318013E7F3EFB000A128A15F3
:1002080065230A128A1183120313B600B701360850
:10021800C9070318CA0A3708CA074A08A5004908BF
:10022800A4003D300A128A11F1240A128A11013001
:1002380083120313D2070318D30A0030D3077B288D
:100248000330FA000030FB000A128A1565230A12EF
:100258008A1183120313B400B5013408C1003508AC
:10026800C2004208A5004108A40063300A128A119E
:10027800F1240A128A1183120313D201D30142080E
:100288005302031D49294108520203189A2A5308A8
:10029800F1005208F0000730F2000030F3000A12B3
:1002A8008A1538210A128A117008743EFA007108FA
:1002B8000318013EFF3EFB000A128A1565230A1245
:1002C8008A1183120313B400B5013408CF0035082E
:1002D800D0005008A5004F08A4005D300A128A110A
:1002E800F1240A128A11831203135308F1005208E9
:1002F800F0000730F2000030F3000A128A153821A6
:100308000A128A117008753EFA0071080318013E36
:10031800FF3EFB000A128A1565230A128A1183120E
:100328000313B400B5013408CF003508D0005008D5
:10033800A5004F08A40051300A128A11F1240A12AC
:100348008A11831203135308F1005208F000073092
:10035800F2000030F3000A128A1538210A128A11B5
:100368007008763EFA0071080318013EFF3EFB0054
:100378000A128A1565230A128A1183120313B4001C
:10038800B5013408CF003508D0005008A5004F0843
:10039800A40057300A128A11F1240A128A11831212
:1003A80003135308F1005208F0000730F200003040
:1003B800F3000A128A1538210A128A117008773E4A
:1003C800FA0071080318013EFF3EFB000A128A1565
:1003D80065230A128A1183120313B400B501340885
:1003E800CF003508D0005008A5004F08A4005730AA
:1003F8000A128A11F1240A128A118312031353086C
:10040800F1005208F0000730F2000030F3000A1241
:100418008A1538210A128A117008783EFA00710884
:100428000318013EFF3EFB000A128A1565230A12D3
:100438008A1183120313B400B5013408CF003508BC
:10044800D0005008A5004F08A4004B300A128A11AA
:10045800F1240A128A11831203135308F100520877
:10046800F0000730F2000030F3000A128A15382134
:100478000A128A117008793EFA0071080318013EC1
:10048800FF3EFB000A128A1565230A128A1183129D
:100498000313B400B5013408CF003508D000500864
:1004A800A5004F08A40068300A128A11F1240A1224
:1004B8008A11831203135308F1005208F000073021
:1004C800F2000030F3000A128A1538210A128A1144
:1004D80070087A3EFA0071080318013EFF3EFB00DF
:1004E8000A128A1565230A128A1183120313B400AB
:1004F800B5013408CF003508D0005008A5004F08D2
:10050800A40068300A128A11F1240A128A113B30B9
:100518000A128A11F1240A128A1101308312031374
:10052800D2070318D30A0030D307432979300A12B7
:100538008A11F1240A128A118312031306125F2BFF
:10054800C501073045020318C82A8C1EA92ADF11E5
:100558001819DF15831203135F1198185F1583129A
:100568000313DF1D5F19C02A1A08B4004508583E56
:1005780084003408831380000130B4003408C507B0
:1005880007304502031CA92A58300A128A15C322CB
:100598000A128A115F2B06160230FA000030FB009F
:1005A800FC010A128A15AB230A128A110A128A154B
:1005B800D9240A128A118312031306120230FA0090
:1005C8000030FB000A128A1565230A128A11AA3A1A
:1005D800031D5F2B0D30FA000030FB000A128A154C
:1005E80065230A128A11003A031D5F2B76300A121E
:1005F8008A11F1240A128A115F2B83120313C60190
:100608000730460203185F2B46080A128A152D2266
:100618000A128A1183120313B400B5013408A40026
:100628003508A50072300A128A11F1240A128A11BB
:10063800013083120313B4003408C607042B0A12CE
:100648008A1538260A128A117B0883120313A5001B
:100658007A08A40044300A128A11F1240A128A1175
:100668000A128A1529250A128A117B088312031394
:10067800A5007A08A4006D300A128A11F1240A1222
:100688008A1179300A128A11F1240A128A115F2B11
:10069800831203133C08613A03193F28033A0319EC
:1006A800A42A013A0319CF2A073A0319012B093A58
:1006B8000319232B5F2B8B17831203138C1CE42C39
:1006C8008C108B130619792B5F1A722B0A128A1554
:1006D80095260A128A11831203135F160530B40097
:1006E8003408E000D701D401D501061DE32C5F1EB4
:1006F800822B0A128A1595260A128A110130831252
:100708000313B4003408D70719305702031CA42B6D
:1007180060080319932B06160130E002942B061289
:100728000130D4070318D50A0030D507D7010230A5
:1007380054065504031DA42B0230B4003408D60017
:1007480002305606031DE32CD601D401D5010A1246
:100758008A1538260A128A117B0883120313BE00F1
:100768007A08BD000A128A1529250A128A117B08FF
:1007780083120313C0007A08BF000A30FA00003061
:10078800FB000A128A1565230A128A1183120313C1
:10079800B400B5013408CD003508CE004D08B500C9
:1007A800B4013408CD003508CE000B30FA00003013
:1007B800FB000A128A1565230A128A118312031391
:1007C800B400B5013408CD070318CE0A3508CE07A2
:1007D8004D08013EC7004E080318013E003EC80000
:1007E8004808B4003408D1000A30FA000030FB0091
:1007F8005108B4003408FC000A128A15AB230A1207
:100808008A11831203134708B4003408D1000B304F
:10081800FA000030FB005108B4003408FC000A124A
:100828008A15AB230A128A11831203134E08B500E6
:100838004D08B4000310B40DB50D3408103ECD00BA
:1008480035080318013E003ECE000C30FA00003097
:10085800FB000A128A1565230A128A1183120313F0
:10086800B400B5013408CB003508CC004B08B500FE
:10087800B4013408CB003508CC000D30FA00003044
:10088800FB000A128A1565230A128A1183120313C0
:10089800B400B5013408CB070318CC0A3508CC07D7
:1008A8004B08013EC7004C080318013E003EC80033
:1008B8004808B4003408D1000C30FA000030FB00BE
:1008C8005108B4003408FC000A128A15AB230A1236
:1008D8008A11831203134708B4003408D1000D307D
:1008E800FA000030FB005108B4003408FC000A127A
:1008F8008A15AB230A128A11831203134C08B50018
:100908004B08B4000310B40DB50D3408F73ECB0006
:1009180035080318013E7F3ECC003E08B400340879
:10092800D1004E08FB004D08FA005108B400340805
:10093800FC000A128A15AB230A128A1183120313C8
:100948003D08B4003408D1004D08013EFA004E08B5
:100958000318013E003EFB005108B4003408FC00B7
:100968000A128A15AB230A128A118312031340084C
:10097800B4003408D1004C08FB004B08FA005108B9
:10098800B4003408FC000A128A15AB230A128A1133
:10099800831203133F08B4003408D1004B08013E0A
:1009A800FA004C080318013E003EFB005108B40051
:1009B8003408FC000A128A15AB230A128A118B1715
:1009C800831203133B08FF003A088A0039088400A1
:1009D800380E8300FE0E7E0E090083120313B20048
:1009E8002430A6002608AB00013083120313B20797
:1009F800FF30320784000A128A1107270A128A1167
:100A0800A6002608B300330803190800253033066A
:100A18000319152D33080A128A15ED200A128A11B6
:100A2800F82C83120313AF01B001B101202D311549
:100A38000130A6002608B207320884000A128A117B
:100A480007270A128A11303A03191B2D2B2D320859
:100A580084000A128A1107270A128A110A128A15B3
:100A6800F5200A128A11031C7B2D83120313AF0190
:100A7800B0010A30F0000030F1008312031330088F
:100A8800F3002F08F2000A128A1538210A128A1177
:100A9800710883120313B0007008AF003208840095
:100AA8000A128A1107270A128A11D03EA600FF30BF
:100AB80003180030A7002608AF070318B00A270854
:100AC800B0070130A6002608B207320884000A12CF
:100AD8008A1107270A128A110A128A15F5200A12A2
:100AE8008A11031C7B2D3D2DB116B117982D0130AD
:100AF80083120313B207FF30320784000A128A11E7
:100B080007270A128A11B300003A0319062F583A28
:100B18000319782D3C3A0319982D0D3A0319982D8D
:100B2800113A0319792DF82C83120313B11BB42D34
:100B38002B08840083130008AD00840A0008AE0067
:100B48000230A6002608AB07AE1F092E0330A60008
:100B58002608B104AD09AE09AD0A0319AE0A092E7B
:100B68002B08840083130008AD00840A0008AE0037
:100B78000230A6002608AB07092EB301B30A0530D8
:100B880033060319122E3308A6002607013E8400F7
:100B98000A128A1107270A128A11A7000A128A1153
:100BA80007270A128A11A80028082E02031DDE2D25
:100BB80027082D02031C122E0130A6002608B307B1
:100BC800C32DB301B30A043033060319122E3308B8
:100BD800A60026070B3E84000A128A1107270A126C
:100BE8008A11A7000A128A1107270A128A11A80077
:100BF80028082E02031D022E27082D02031C122E80
:100C08000130A6002608B307E72D31088039003ADD
:100C18000319C12D803A0319E52D122E2F0830042F
:100C28000319202E310803390319202EFF30AF078E
:100C38000318B00AFF30B0073308A600A701A61BA7
:100C4800A7032708803AA8003008803A2802031D25
:100C58002F2E2F08260203183F2E83120313330862
:100C6800A600A701A61BA7032608AF022708031C96
:100C7800B003B002432E83120313AF01B001311D3C
:100C8800642E3108033903194F2E2D300A128A15A4
:100C9800ED200A128A11831203132F083004031956
:100CA800842E30300A128A15ED200A128A11FF307C
:100CB80083120313AF070318B00AFF30B007512E91
:100CC8002F08300403197A2E20300A128A15ED20D5
:100CD8000A128A11FF3083120313AF070318B00AF0
:100CE800FF30B0072F083004031D682E3108033980
:100CF8000319842E2D300A128A15ED200A128A1142
:100D0800831203133308A6002608AC00F32E0A301A
:100D1800F8000030F9002C08A6002607013E8400E0
:100D28000A128A1107270A128A11F0000A128A1178
:100D380007270A128A11F1002E08F3002D08F20085
:100D48000A128A1529230A128A117108FB007008F1
:100D5800FA000A128A155E220A128A117808303EB1
:100D680083120313A7002708EC2E2C08A6002607D9
:100D78000B3E84000A128A1107270A128A11F00012
:100D88000A128A1107270A128A11F1002E08F300A5
:100D98002D08F2000A128A1529230A128A117008EE
:100DA8000F3983120313A7002708A900B11ADE2EF2
:100DB8002430DF2E1330A6002608AA0029082A07A7
:100DC80084000A128A1107270A128A11A600260827
:100DD800B30033080A128A15ED200A128A11FF306F
:100DE80083120313A6002608AC072C0A0319F82C53
:100DF80031088039003A03198B2E803A0319B92E2D
:100E0800ED2EED2E080007308A000408840A8207B8
:100E18000034013400340A34003464340034E834D3
:100E280003341034273401340034103400340034CF
:100E380001340034103430343134323433343434FF
:100E48003534363437343834393441344234433421
:100E58004434453446340034303431343234333455
:100E680034343534363437343834393461346234D0
:100E7800633464346534663400344934253430349A
:100E8800353464340D340A34003425343034343481
:100E980078340D340A340034493425343034343449
:100EA80078343B34003425343034323478340934DF
:100EB8000034253430343234783420340034253446
:100EC8003034323478342F340034253430343234EA
:100ED80078343A3400345A34253478340A340034B7
:100EE80025343034323478340034253430343434D2
:100EF8007834003425345834203400344F344B349B
:100F080000345834003483160313A90083120313E2
:100F1800DF1083160313291C942F83120313DF1485
:100F2800831603132903031D9C2F831203135F10D9
:100F38000330831603132906031DA52F83120313F9
:100F48005F148316031311080139A000110C01392D
:100F5800A100110CA200A20C220C0139A300110E51
:100F68000139A400110CA500250C0139A600140CA8
:100F7800A700270C01392604240423042104200493
:100F8800031DA52F9115141CC72F83128C1DC92F63
:100F98005F1CD22F831603139116D52F83160313C4
:100FA800911283120313DF1CDD2F8316031311160E
:100FB800E02F8316031311128312031313088316E9
:100FC8000313A0002008A8001418E82F2808080018
:100FD800831203131408F039083894009416043067
:100FE8008316031393009417871507160800053412
:1011DA00F000831203130C1EEE2870089900080011
:1011EA00F100F0013A30710203180129303071021E
:1011FA00031C0129F001F00A700C0800831603137E
:10120A008C160C12181583160317871183160313ED
:10121A009A010C3099001812831203139817831637
:10122A000313981683120313181608000A128A1554
:10123A00C2210A128A1583160313A001A00A80305C
:10124A000A128A15F6220A128A1583160313A001B6
:10125A00A00AFE300A128A15F6220A128A150A1202
:10126A008A15E5210800F401F501701C422972086B
:10127A00F4070318F50A7308F50701300310F20D95
:10128A00F30DFF3E031D432901300310F10CF00C4E
:10129A00FF3E031D4A2970087104031D3A29750887
:1012AA00F1007408F00008008316031311080139CD
:1012BA00F000110C0139F100110CF200F20C720C61
:1012CA000139F300110E0139F400110CF500750C07
:1012DA000139F600140CF700770C0139760474040E
:1012EA00730471047004031D59291114080083162C
:1012FA00031311080139F000110C0139F100110C26
:10130A00F200F20C720C0139F300110E0139F400EB
:10131A00110CF500750C0139F600140CF700770C66
:10132A00013976047404730471047004031D7C2962
:10133A00111508008316031311080139F000110C66
:10134A000139F100110CF200F20C720C0139F300B0
:10135A00110E0139F400110CF500750C0139F60073
:10136A00140CF700770C01397604740473047104C1
:10137A007004031D9F299114080083160313110892
:10138A000139A000110C0139A100110CA200A20C14
:10139A00220C0139A300110E0139A400110CA50079
:1013AA00250C0139A600140CA700270C01392604C4
:1013BA002404230421042004031DC2291114080053
:1013CA008316031311080139A000110C0139A10079
:1013DA00110CA200A20C220C0139A300110E013932
:1013EA00A400110CA500250C0139A600140CA700B5
:1013FA00270C013926042404230421042004031D94
:10140A00E5291115080083160313A400A501210874
:10141A0092002008A20002300310A20DFF3E031D15
:10142A00112A0310220DF83E7839A3002308A500DB
:10143A000430A2002208A5072408A2002208A50752
:10144A002508831203139200831603138C140800D1
:10145A00FB000A128A1559210A128A15F001F00AAC
:10146A00D0300A128A1590220A128A15F001F00A5F
:10147A007B080A128A1590220A128A150A128A15FC
:10148A009F210A128A15F001F00AD1300A128A1530
:10149A0090220A128A1500300A128A1582250A1227
:1014AA008A15FA007A08FC000A128A157C217C083F
:1014BA0008007808790403198B2AFD01FD0AF91B33
:1014CA00722A01300310F80DF90DFF3E031D672A39
:1014DA000130FC007C08FD07642A79087B02031DA1
:1014EA00782A78087A02031C802A7808FA0279088E
:1014FA00031CFB03FB0201300310F90CF80CFF3E3E
:10150A00031D812A0130FD02031D722A7B08F9009E
:10151A007A08F8000800F900831603131108013944
:10152A00F100110C0139F200110CF300F30C730CE9
:10153A000139F400110E0139F500110CF600760C90
:10154A000139F700140CF800780C01397704750496
:10155A00740472047104031D912A79088312031317
:10156A009300831603131418B62A70080319BF2AA6
:10157A00111BBD2A83128C190800BF2AFB00FC012B
:10158A0007307C02031808000A128A1559210A1228
:10159A008A15F001F00AD0300A128A1590220A122E
:1015AA008A15F001F00A7C080A128A1590220A129A
:1015BA008A15F001F00A7C087B07FA007A08840091
:1015CA00831300080A128A1590220A128A150A122F
:1015DA008A157C210A128A150130FA007A08FC075A
:1015EA00C52A83160313A90011080139A100110C99
:1015FA000139A200110CA300A30C230C0139A40089
:10160A00110E0139A500110CA600260C0139A700FC
:10161A00140CA800280C01392704250424042204E8
:10162A002104031DF92A2908831203139300831640
:10163A00031314181C2B20080319252B111B232B09
:10164A0083128C190800252BF501F6017008710424
:10165A000319602BF701F70AF11B3F2B0130031026
:10166A00F00DF10DFF3E031D342B0130F400740818
:10167A00F707312B01300310F50DF60DFF3E031D60
:10168A00402B71087302031D4C2B70087202031C55
:10169A00552B7008F2027108031CF303F302751448
:1016AA0001300310F10CF00CFF3E031D562B0130E4
:1016BA00F702031D3F2B7608F1007508F0000800B9
:1016CA007B08FC007C0883120313A1007A08FC0043
:1016DA007C08A2000A128A1559210A128A15F001F9
:1016EA00A0300A128A1590220A128A15F001831272
:1016FA00031321080A128A1590220A128A15F00188
:10170A008312031322080A128A1590220A128A15D2
:10171A000A128A1559210A128A15F001A1300A12F1
:10172A008A1590220A128A1500300A128A15822511
:10173A000A128A15FC007C0883120313A0000A12FD
:10174A008A157C2183120313200808007B08FD00F8
:10175A007D0883120313A0007A08FD007D08A1000A
:10176A000A128A1559210A128A15F001A0300A12A2
:10177A008A1590220A128A15F0018312031320088F
:10178A000A128A1590220A128A15F001831203138B
:10179A0021080A128A1590220A128A15F0017C0879
:1017AA000A128A1590220A128A150A128A157C21AF
:1017BA000A128A150A128A1559210A128A15F00183
:1017CA00A0300A128A1590220A128A158316031368
:1017DA00111BDF2B0A128A157C21080083160313BA
:1017EA002B08AC002C08AE002A08AC002C08AF006D
:1017FA000A128A15C2210A128A1583160313A00136
:10180A00A0300A128A15F6220A128A1583160313C1
:10181A00A0012E080A128A15F6220A128A158316C0
:10182A000313A0012F080A128A15F6220A128A1532
:10183A000A128A15C2210A128A1583160313A001F5
:10184A00A1300A128A15F6220A128A1500300A12E3
:10185A008A1187270A128A1583160313AC002C08EB
:10186A00AD000A128A15E521831603132D08080014
:10187A00831603132B08AD002D08AE002A08AD000D
:10188A002D08AF000A128A15C2210A128A15831678
:10189A000313A001A0300A128A15F6220A128A1529
:1018AA0083160313A0012E080A128A15F6220A12B9
:1018BA008A1583160313A0012F080A128A15F62225
:1018CA000A128A1583160313A0012C080A128A1514
:1018DA00F6220A128A150A128A15E5210A128A15AF
:1018EA000A128A15C2210A128A1583160313A00145
:1018FA00A0300A128A15F6220A128A1583160313D1
:10190A00111B752C0A128A15E5210800513083161D
:10191A0003138F00C0308B008501860183160317DD
:10192A0009108316031306158312031306120A12EB
:10193A008A1503210A128A150A128A11EC270A1239
:10194A008A15073083160313B3007C30B200B20B3A
:10195A00AC2CB30BAC2C00000A128A15DC250A1237
:10196A008A150A128A151B210A128A158312031371
:10197A005F16823083160313B300DD30B200B20B58
:10198A00C42CB30BC42C053083160313B2003208DF
:10199A00A000FA30B3003308A10002300A128A15F7
:1019AA0008220A128A15D82C0230FA000030FB00ED
:1019BA000A128A1565230A128A1583120313A300D1
:1019CA002308A400AA302406031908000230FA00EA
:1019DA000030FB00AA30A3002308FC000A128A1573
:1019EA00AB230A128A150330FA000030FB00FC010F
:1019FA000A128A15AB230A128A150A30FA00003035
:101A0A00FB00FC010A128A15AB230A128A150B3055
:101A1A00FA000030FB00FC010A128A15AB230A12F5
:101A2A008A150C30FA000030FB00FC010A128A15F4
:101A3A00AB230A128A150D30FA000030FB00FC01B4
:101A4A000A128A15AB2308000A128A1559210A12AA
:101A5A008A15F001F00A80300A128A1590220A12B9
:101A6A008A15F001F00AE3300A128A1590220A1246
:101A7A008A150A128A159F210A128A15F001F00A9C
:101A8A0081300A128A1590220A128A1501300A1226
:101A9A008A1582250A128A15FC007C088312031310
:101AAA00A00003300A128A1582250A128A15FC0040
:101ABA007C0883120313A1000A128A157C2183125F
:101ACA0003132008FC00FD017C08A2007D08A30086
:101ADA002208FD00FC017C08A2007D08A300210861
:101AEA00FC00FD017C08A2070318A30A7D08A307CE
:101AFA002308FB002208FA000800F90083120313E6
:101B0A00DF107918DF147903031D8E2D8312031356
:101B1A005F1003307906031D952D831203135F149A
:101B2A008316031311080139F000110C0139F10071
:101B3A00110CF200F20C720C0139F300110E01398A
:101B4A00F400110CF500750C0139F600140CF700BD
:101B5A00770C013976047404730471047004031D4C
:101B6A00952D9115141CB72D83128C1DB92D5F1C50
:101B7A00C22D831603139116C52D831603139112D2
:101B8A0083120313DF1CCD2D831603131116D02DD8
:101B9A00831603131112831203131308F00070083B
:101BAA00F800831603131418D62D7808080002309B
:101BBA0083160313AA000030AB000A128A15F32316
:101BCA000A128A1583160313B0003008B100AA302E
:101BDA003106031908000230AA000030AB00AA300F
:101BEA00B0003008AC000A128A153D240A128A1580
:101BFA00033083160313AA000030AB00AC010A12AB
:101C0A008A153D240A128A150A3083160313AA007C
:101C1A000030AB00AC010A128A153D240A128A155B
:101C2A000B3083160313AA000030AB00AC010A1272
:101C3A008A153D240A128A150C3083160313AA004A
:101C4A000030AB00AC010A128A153D240A128A152B
:101C5A000D3083160313AA000030AB00AC010A1240
:101C6A008A153D24080083120313A201A3010A1254
:101C7A008A1559210A128A15F001F00A80300A12CF
:101C8A008A1590220A128A15F001F00AE5300A1222
:101C9A008A1590220A128A150A128A159F210A1297
:101CAA008A15F001F00A81300A128A1590220A1266
:101CBA008A1501300A128A1582250A128A15FC0031
:101CCA007C0883120313A00003300A128A158225A6
:101CDA000A128A15FC007C0883120313A1000A1257
:101CEA008A157C21831203132008FC00FD017C085D
:101CFA00A2007D08A3002208FD00FC017C08A200C6
:101D0A007D08A3002108FC00FD017C08A207031836
:101D1A00A30A7D08A3072308FB002208FA0008008B
:101D2A00831203135F120330FA000030FB000A1219
:101D3A008A1565230A128A1583120313A30023083E
:101D4A00A60001300A128A152D220A128A15831258
:101D5A000313A3002308A7002608A300A40123084D
:101D6A00F0002408F1000730F2000030F3000A12F4
:101D7A008A1538210A128A157008743EFA00710809
:101D8A000318013EFF3EFB00831203132708A50038
:101D9A002508FC000A128A15AB230A128A1502309A
:101DAA000A128A152D220A128A1583120313A30016
:101DBA002308A7002608A300A4012308F00024088A
:101DCA00F1000730F2000030F3000A128A153821B8
:101DDA000A128A157008753EFA0071080318013E46
:101DEA00FF3EFB00831203132708A5002508FC0009
:101DFA000A128A15AB230A128A1504300A128A15A6
:101E0A002D220A128A1583120313A3002308A7009E
:101E1A002608A300A4012308F0002408F1000730D3
:101E2A00F2000030F3000A128A1538210A128A15C4
:101E3A007008763EFA0071080318013EFF3EFB0067
:101E4A00831203132708A5002508FC000A128A1525
:101E5A00AB230A128A1505300A128A152D220A1294
:101E6A008A1583120313A3002308A7002608A300D8
:101E7A00A4012308F0002408F1000730F200003022
:101E8A00F3000A128A1538210A128A157008773E59
:101E9A00FA0071080318013EFF3EFB008312031388
:101EAA002708A5002508FC000A128A15AB230A1286
:101EBA008A1506300A128A152D220A128A158312E9
:101ECA000313A3002308A7002608A300A4012308DC
:101EDA00F0002408F1000730F2000030F3000A1283
:101EEA008A1538210A128A157008783EFA00710894
:101EFA000318013EFF3EFB00831203132708A500C7
:101F0A002508FC000A128A15AB230A128A150A3020
:101F1A00FA000030FB000A128A1565230A128A1594
:101F2A0083120313A3002308A7002608A300A40111
:101F3A002308F0002408F1000730F2000030F30013
:101F4A000A128A1538210A128A157008793EFA008F
:101F5A0071080318013EFF3EFB0083120313270892
:101F6A00A5002508FC000A128A15AB230A128A1555
:101F7A000B30FA000030FB000A128A1565230A1298
:101F8A008A1583120313A3002308A7002608A300B7
:101F9A00A4012308F0002408F1000730F200003001
:101FAA00F3000A128A1538210A128A1570087A3E35
:101FBA00FA0071080318013EFF3EFB008312031367
:101FCA002708A5002508FC000A128A15AB230A1265
:101FDA008A15013083120313A3002308A6070330CE
:101FEA00FA000030FB002608A3002308FC000A12AE
:061FFA008A15AB2308006C
:04400E00F4ECFFFED1
:00000001FF
