:060000000A128A11122809
:10000800FE00030E83120313B8000408B9000A089F
:10001800BA007F08BB000A128A1129280A128A111D
:1000280015280A128A11FF27E000D401D501D6014C
:10003800D701D801D901DA01DB01DC01DD01DE01DC
:10004800DF0183010A128A15F62D8C1EB32A8B1341
:10005800BE01DF111819DF15831203135F119818F9
:100068005F1583120313DF1D5F199F2A1A08B40056
:100078003408BE009F2A0616BC01BD010A30FA00EA
:100088000030FB000A128A15D0240A128A11831242
:100098000313B400B5013408C3003508C40043088D
:1000A800B500B4013408C3003508C4000B30FA00A9
:1000B8000030FB000A128A15D0240A128A11831212
:1000C8000313B400B5013408C3070318C40A35087C
:1000D800C4074408A5004308A40035300A128A1151
:1000E80043240A128A1183120313C901CA0144085E
:1000F8004A02031D812843084902031824294A0893
:10010800B5004908B4000310B40DB50D3408103E0D
:10011800FA0035080318013E003EFB000A128A1552
:10012800D0240A128A1183120313B600B7013608C5
:10013800CB003708CC004B08B500B4013408CB001D
:100148003508CC004A08B5004908B4000310B40DBE
:10015800B50D3408113EFA0035080318013E003E7B
:10016800FB000A128A15D0240A128A11831203137B
:10017800B600B7013608CB070318CC0A3708CC07F6
:100188004C08A5004B08A40061300A128A114324C8
:100198000A128A11831203134A08B5004908B400E9
:1001A8000310B40DB50D3408F73EFA0035080318EE
:1001B800013E7F3EFB000A128A15D0240A128A11DA
:1001C80083120313B600B7013608CB003708CC00FA
:1001D8004B08B500B4013408CB003508CC004A08F8
:1001E800B5004908B4000310B40DB50D3408F83E45
:1001F800FA0035080318013E7F3EFB000A128A15F3
:10020800D0240A128A1183120313B600B7013608E4
:10021800CB070318CC0A3708CC074C08A5004B08B5
:10022800A40061300A128A1143240A128A1101308B
:1002380083120313C9070318CA0A0030CA077B28A8
:100248006F300A128A1143240A128A11F930FA000F
:10025800FF30FB000A128A15D0240A128A11831271
:100268000313B400B5013408D1003508D200520890
:10027800A5005108A40056300A128A1143240A1214
:100288008A11FA30FA00FF30FB000A128A15D024CE
:100298000A128A1183120313B400B5013408D1007D
:1002A8003508D2005208A5005108A4004A300A12A5
:1002B8008A1143240A128A11FB30FA00FF30FB002E
:1002C8000A128A15D0240A128A1183120313B40061
:1002D800B5013408D1003508D2005208A5005108EC
:1002E800A40050300A128A1143240A128A11FC30E1
:1002F800FA00FF30FB000A128A15D0240A128A116C
:1003080083120313B400B5013408D1003508D200B4
:100318005208A5005108A40050300A128A1143243B
:100328000A128A11FD30FA00FF30FB000A128A1502
:10033800D0240A128A1183120313B400B5013408B9
:10034800D1003508D2005208A5005108A400443055
:100358000A128A1143240A128A11FE30FA00FF3069
:10036800FB000A128A15D0240A128A118312031379
:10037800B400B5013408D1003508D2005208A500F0
:100388005108A4005C300A128A1143240A128A1107
:10039800FF30FA00FF30FB000A128A15D0240A1237
:1003A8008A1183120313B400B5013408D10035084B
:1003B800D2005208A5005108A4005C300A128A1124
:1003C80043240A128A113A300A128A1143240A1263
:1003D8008A116D300A128A1143240A128A11831273
:1003E80003130612B22AC5010730450203181B2A57
:1003F8008C1EFC29DF111819DF15831203135F11F6
:1004080098185F1583120313DF1D5F19132A1A0842
:10041800B4004508583E8400340883138000013036
:10042800B4003408C50707304502031CFC295830BE
:100438000A128A152E240A128A11B22A06160230C6
:10044800FA000030FB00FC010A128A1516250A1270
:100458008A110A128A1544260A128A118312031372
:1004680006120230FA000030FB000A128A15D02466
:100478000A128A11AA3A031DB22A0D30FA00003076
:10048800FB000A128A15D0240A128A11003A031DA9
:10049800B22A6A300A128A1143240A128A11B22A2D
:1004A80083120313C601073046020318B22A46080E
:1004B8000A128A1598230A128A1183120313B400A8
:1004C800B5013408A4003508A50066300A128A115F
:1004D80043240A128A11013083120313B40034082A
:1004E800C607572A0A128A15A3270A128A117B08F7
:1004F80083120313A5007A08A4003D300A128A115A
:1005080043240A128A110A128A1594260A128A1199
:100518007B0883120313A5007A08A40061300A122D
:100528008A1143240A128A116D300A128A1143244F
:100538000A128A11B22A831203133E08613A031978
:100548003F28033A0319F729013A0319222A073ADF
:100558000319542A093A0319762AB22A8B178312E7
:1005680003138C1C362C8C108B130619C22A0530E9
:10057800B4003408E000D701D401D501061D352C9C
:100588000330FA000030FB000A128A15D0240A1240
:100598008A11AA3A0319D52A0A128A1159260A1267
:1005A8008A11013083120313B4003408D7070730C7
:1005B8005702031CF62A60080319E62A06160130BA
:1005C800E002E72A06120130D4070318D50A0030E2
:1005D800D507D70154035504031DF62A0230B40089
:1005E8003408D60002305606031D352CD601D40136
:1005F800D5010A128A15A3270A128A117B088312C9
:100608000313C0007A08BF000A128A1594260A123A
:100618008A117B0883120313C2007A08C1000A30CA
:10062800FA000030FB000A128A15D0240A128A1137
:1006380083120313B400B5013408CF003508D00085
:100648004F08B500B4013408CF003508D0000B308E
:10065800FA000030FB000A128A15D0240A128A1107
:1006680083120313B400B5013408CF070318D00A66
:100678003508D0074F08013EC70050080318013E4F
:10068800003EC8004808B4003408D3000A30FA0015
:100698000030FB005308B4003408FC000A128A1525
:1006A80016250A128A11831203134708B400340866
:1006B800D3000B30FA000030FB005308B4003408B4
:1006C800FC000A128A1516250A128A1183120313CE
:1006D8005008B5004F08B4000310B40DB50D340828
:1006E800103ECF0035080318013E003ED0000C3004
:1006F800FA000030FB000A128A15D0240A128A1167
:1007080083120313B400B5013408CD003508CE00B8
:100718004D08B500B4013408CD003508CE000D30C1
:10072800FA000030FB000A128A15D0240A128A1136
:1007380083120313B400B5013408CD070318CE0A99
:100748003508CE074D08013EC7004E080318013E84
:10075800003EC8004808B4003408D3000C30FA0042
:100768000030FB005308B4003408FC000A128A1554
:1007780016250A128A11831203134708B400340895
:10078800D3000D30FA000030FB005308B4003408E1
:10079800FC000A128A1516250A128A1183120313FD
:1007A8004E08B5004D08B4000310B40DB50D34085B
:1007B800F73ECD0035080318013E7F3ECE004008C5
:1007C800B4003408D3005008FB004F08FA0053085F
:1007D800B4003408FC000A128A1516250A128A1178
:1007E800831203133F08B4003408D3004F08013EB6
:1007F800FA0050080318013E003EFB005308B400FD
:100808003408FC000A128A1516250A128A11831266
:1008180003134208B4003408D3004E08FB004D0807
:10082800FA005308B4003408FC000A128A15162589
:100838000A128A11831203134108B4003408D30042
:100848004D08013EFA004E080318013E003EFB0029
:100858005308B4003408FC000A128A1516250A1237
:100868008A118B17831203133B08FF003A088A008A
:1008780039088400380E8300FE0E7E0E09008312AC
:100888000313B2002430A6002608AB0001308312FF
:100898000313B207FF30320784000A128A111527A2
:1008A8000A128A11A6002608B300330803190800A3
:1008B800253033060319672C33080A128A15582283
:1008C8000A128A114A2C83120313AF01B001B10135
:1008D800722C31150130A6002608B20732088400B0
:1008E8000A128A1115270A128A11303A03196D2C37
:1008F8007D2C320884000A128A1115270A128A11DF
:100908000A128A1560220A128A11031CCD2C83123E
:100918000313AF01B0010A30F0000030F100831278
:1009280003133008F3002F08F2000A128A15A322D5
:100938000A128A11710883120313B0007008AF00FD
:10094800320884000A128A1115270A128A11D03E29
:10095800A600FF3003180030A7002608AF070318C9
:10096800B00A2708B0070130A6002608B2073208E7
:1009780084000A128A1115270A128A110A128A1586
:1009880060220A128A11031CCD2C8F2CB116B117C4
:10099800EA2C013083120313B207FF3032078400B8
:1009A8000A128A1115270A128A11B300003A03198C
:1009B800582E583A0319CA2C3C3A0319EA2C0D3A16
:1009C8000319EA2C113A0319CB2C4A2C831203136E
:1009D800B11B062D2B08840083130008AD00840A80
:1009E8000008AE000230A6002608AB07AE1F5B2D3C
:1009F8000330A6002608B104AD09AE09AD0A0319F3
:100A0800AE0A5B2D2B08840083130008AD00840A0E
:100A18000008AE000230A6002608AB075B2DB30124
:100A2800B30A053033060319642D3308A6002607D8
:100A3800013E84000A128A1115270A128A11A7009A
:100A48000A128A1115270A128A11A80028082E02EC
:100A5800031D302D27082D02031C642D0130A6002C
:100A68002608B307152DB301B30A0430330603195A
:100A7800642D3308A60026070B3E84000A128A114B
:100A880015270A128A11A7000A128A1115270A12B5
:100A98008A11A80028082E02031D542D27082D02AC
:100AA800031C642D0130A6002608B307392D310830
:100AB8008039003A0319132D803A0319372D642D14
:100AC8002F0830040319722D310803390319722DC8
:100AD800FF30AF070318B00AFF30B0073308A6008D
:100AE800A701A61BA7032708803AA8003008803A68
:100AF8002802031D812D2F0826020318912D831229
:100B080003133308A600A701A61BA7032608AF02F4
:100B18002708031CB003B002952D83120313AF01FD
:100B2800B001311DB62D310803390319A12D2D301F
:100B38000A128A1558220A128A11831203132F08DF
:100B480030040319D62D30300A128A1558220A1299
:100B58008A11FF3083120313AF070318B00AFF305E
:100B6800B007A32D2F0830040319CC2D20300A120A
:100B78008A1558220A128A11FF3083120313AF070D
:100B88000318B00AFF30B0072F083004031DBA2D30
:100B9800310803390319D62D2D300A128A15582227
:100BA8000A128A11831203133308A6002608AC0020
:100BB800452E0A30F8000030F9002C08A600260758
:100BC800013E84000A128A1115270A128A11F000C0
:100BD8000A128A1115270A128A11F1002E08F30049
:100BE8002D08F2000A128A1594240A128A11710833
:100BF800FB007008FA000A128A15C9230A128A1122
:100C08007808303E83120313A70027083E2E2C08CD
:100C1800A60026070B3E84000A128A1115270A121D
:100C28008A11F0000A128A1115270A128A11F10096
:100C38002E08F3002D08F2000A128A1594240A12CD
:100C48008A1170080F3983120313A7002708A90017
:100C5800B11A302E2430312E1330A6002608AA00EF
:100C680029082A0784000A128A1115270A128A11EC
:100C7800A6002608B30033080A128A1558220A1259
:100C88008A11FF3083120313A6002608AC072C0A2A
:100C980003194A2C31088039003A0319DD2D803AAE
:100CA80003190B2E3F2E3F2E080001300A128A1519
:100CB80098230A128A1183120313A3002308A4009D
:100CC800FA30FA00FF30FB002408A3002308FC00D8
:100CD8000A128A1516250A128A1102300A128A1572
:100CE80098230A128A1183120313A3002308A4006D
:100CF800F930FA00FF30FB002408A3002308FC00A9
:100D08000A128A1516250A128A1104300A128A153F
:100D180098230A128A1183120313A3002308A4003C
:100D2800FB30FA00FF30FB002408A3002308FC0076
:100D38000A128A1516250A128A1105300A128A150E
:100D480098230A128A1183120313A3002308A4000C
:100D5800FC30FA00FF30FB002408A3002308FC0045
:100D68000A128A1516250A128A1106300A128A15DD
:100D780098230A128A1183120313A3002308A400DC
:100D8800FD30FA00FF30FB002408A3002308FC0014
:100D98000A128A1516250A128A110A30FA0000303A
:100DA800FB000A128A15D0240A128A11831203132F
:100DB800A3002308A400FE30FA00FF30FB0024083B
:100DC800A3002308FC000A128A1516250A128A11A4
:100DD8000B30FA000030FB000A128A15D0240A12E0
:100DE8008A1183120313A3002308A400FF30FA001A
:100DF800FF30FB002408A3002308FC000A128A1510
:100E080016250A128A110330FA000030FB00AA30B6
:100E180083120313A3002308FC000A128A1516255F
:100E2800080007308A000408840A82070034013465
:100E380000340A34003464340034E83403341034A1
:100E480027340134003410340034003401340034C1
:100E58001034303431343234333434343534363475
:100E680037343834393441344234433444344534E3
:100E78004634003430343134323433343434353455
:100E88003634373438343934613462346334643452
:100E980065346634003449342534303435346434A8
:100EA8000D340A3400344934253430343434783439
:100EB8003B34003425343034323478340934003447
:100EC8002534303432347834203400342534303406
:100ED800323478342F340034253430343234783492
:100EE8003A340034253430343234783400342534FC
:100EF80030343434783400342534583420340034D1
:100F08004F344B340034583400345A340034831688
:100F18000313A90083120313DF1083160313291C7C
:100F2800982F83120313DF14831603132903031D59
:100F3800A02F831203135F100330831603132906AF
:100F4800031DA92F831203135F14831603131108BB
:100F58000139A000110C0139A100110CA200A20C4A
:100F6800220C0139A300110E0139A400110CA500AF
:100F7800250C0139A600140CA700270C01392604FA
:100F88002404230421042004031DA92F9115141CF3
:100F9800CB2F83128C1DCD2F5F1CD62F83160313E6
:100FA8009116D92F83160313911283120313DF1C92
:100FB800E12F831603131116E42F8316031311125E
:100FC80083120313130883160313A0002008A80034
:100FD8001418EC2F28080800831203131408F0399A
:100FE800083894009416043083160313930094175A
:080FF8008715071608000534F7
:1014B000F000831203130C1E592A700899000800CB
:1014C000F100F0013A30710203186C2A30307102D9
:1014D000031C6C2AF001F00A700C08008316031339
:1014E0008C160C1218158316031787118316031315
:1014F0009A010C309900181283120313981783165F
:101500000313981683120313181608000A128A157B
:101510002D230A128A1583160313A001A00A803016
:101520000A128A1561240A128A1583160313A00170
:10153000A00AFE300A128A1561240A128A150A12BC
:101540008A1550230800F401F501701CAD2A7208B9
:10155000F4070318F50A7308F50701300310F20DBC
:10156000F30DFF3E031DAE2A01300310F10CF00C09
:10157000FF3E031DB52A70087104031DA52A7508D6
:10158000F1007408F00008008316031311080139F4
:10159000F000110C0139F100110CF200F20C720C88
:1015A0000139F300110E0139F400110CF500750C2E
:1015B0000139F600140CF700770C01397604740435
:1015C000730471047004031DC42A111408008316E7
:1015D000031311080139F000110C0139F100110C4D
:1015E000F200F20C720C0139F300110E0139F40013
:1015F000110CF500750C0139F600140CF700770C8E
:10160000013976047404730471047004031DE72A1D
:10161000111508008316031311080139F000110C8D
:101620000139F100110CF200F20C720C0139F300D7
:10163000110E0139F400110CF500750C0139F6009A
:10164000140CF700770C01397604740473047104E8
:101650007004031D0A2B911408008316031311084C
:101660000139A000110C0139A100110CA200A20C3B
:10167000220C0139A300110E0139A400110CA500A0
:10168000250C0139A600140CA700270C01392604EB
:101690002404230421042004031D2D2B111408000D
:1016A0008316031311080139A000110C0139A100A0
:1016B000110CA200A20C220C0139A300110E013959
:1016C000A400110CA500250C0139A600140CA700DC
:1016D000270C013926042404230421042004031DBB
:1016E000502B1115080083160313A400A50121082F
:1016F00092002008A20002300310A20DFF3E031D3D
:101700007C2B0310220DF83E7839A3002308A50096
:101710000430A2002208A5072408A2002208A50779
:101720002508831203139200831603138C140800F8
:10173000FB000A128A15C4220A128A15F001F00A67
:10174000D0300A128A15FB230A128A15F001F00A1A
:101750007B080A128A15FB230A128A150A128A15B7
:101760000A230A128A15F001F00AD1300A128A15EA
:10177000FB230A128A1500300A128A15ED260A1276
:101780008A15FA007A08FC000A128A15E7227C08FA
:101790000800780879040319F62BFD01FD0AF91BEE
:1017A000DD2B01300310F80DF90DFF3E031DD22B88
:1017B0000130FC007C08FD07CF2B79087B02031D5C
:1017C000E32B78087A02031CEB2B7808FA027908DD
:1017D000031CFB03FB0201300310F90CF80CFF3E65
:1017E000031DEC2B0130FD02031DDD2B7B08F900EE
:1017F0007A08F8000800F90083160313110801396C
:10180000F100110C0139F200110CF300F30C730C10
:101810000139F400110E0139F500110CF600760CB7
:101820000139F700140CF800780C013977047504BD
:10183000740472047104031DFC2B790883120313D2
:101840009300831603131418212C700803192A2CF3
:10185000111B282C83128C1908002A2CFB00FC0178
:1018600007307C02031808000A128A15C4220A12E3
:101870008A15F001F00AD0300A128A15FB230A12E9
:101880008A15F001F00A7C080A128A15FB230A1255
:101890008A15F001F00A7C087B07FA007A088400B8
:1018A000831300080A128A15FB230A128A150A12EA
:1018B0008A15E7220A128A150130FA007A08FC0715
:1018C000302C83160313A90011080139A100110C53
:1018D0000139A200110CA300A30C230C0139A400B0
:1018E000110E0139A500110CA600260C0139A70024
:1018F000140CA800280C0139270425042404220410
:101900002104031D642C29088312031393008316FA
:1019100003131418872C20080319902C111B8E2CEC
:1019200083128C190800902CF501F60170087104DF
:101930000319CB2CF701F70AF11BAA2C0130031075
:10194000F00DF10DFF3E031D9F2C0130F4007408D3
:10195000F7079C2C01300310F50DF60DFF3E031D1B
:10196000AB2C71087302031DB72C70087202031CA4
:10197000C02C7008F2027108031CF303F302751403
:1019800001300310F10CF00CFF3E031DC12C01309F
:10199000F702031DAA2C7608F1007508F000080074
:1019A0007B08FC007C0883120313A1007A08FC006A
:1019B0007C08A2000A128A15C4220A128A15F001B4
:1019C000A0300A128A15FB230A128A15F00183122D
:1019D000031321080A128A15FB230A128A15F00143
:1019E0008312031322080A128A15FB230A128A158E
:1019F0000A128A15C4220A128A15F001A1300A12AD
:101A00008A15FB230A128A1500300A128A15ED2660
:101A10000A128A15FC007C0883120313A0000A1224
:101A20008A15E72283120313200808007B08FD00B3
:101A30007D0883120313A0007A08FD007D08A10031
:101A40000A128A15C4220A128A15F001A0300A125D
:101A50008A15FB230A128A15F0018312031320084A
:101A60000A128A15FB230A128A15F0018312031346
:101A700021080A128A15FB230A128A15F0017C0834
:101A80000A128A15FB230A128A150A128A15E722FE
:101A90000A128A150A128A15C4220A128A15F0013E
:101AA000A0300A128A15FB230A128A158316031323
:101AB000111B4A2D0A128A15E72208008316031308
:101AC0002B08AC002C08AE002A08AC002C08AF0094
:101AD0000A128A152D230A128A1583160313A001F0
:101AE000A0300A128A1561240A128A15831603137C
:101AF000A0012E080A128A1561240A128A1583167B
:101B00000313A0012F080A128A1561240A128A15EC
:101B10000A128A152D230A128A1583160313A001AF
:101B2000A1300A128A1561240A128A1500300A129D
:101B30008A118B270A128A1583160313AC002C080E
:101B4000AD000A128A155023831603132D080800CE
:101B5000831603132B08AD002D08AE002A08AD0034
:101B60002D08AF000A128A152D230A128A15831632
:101B70000313A001A0300A128A1561240A128A15E3
:101B800083160313A0012E080A128A1561240A1273
:101B90008A1583160313A0012F080A128A156124DF
:101BA0000A128A1583160313A0012C080A128A153B
:101BB00061240A128A150A128A1550230A128A15FC
:101BC0000A128A152D230A128A1583160313A001FF
:101BD000A0300A128A1561240A128A15831603138B
:101BE000111BE02D0A128A1550230800513083166C
:101BF00003138F00C0308B00850186018316031705
:101C000009108316031306158312031306120A1212
:101C10008A156E220A128A150A128A11F0270A12F0
:101C20008A15073083160313B3007C30B200B20B61
:101C3000172EB30B172E00000A128A1547270A1217
:101C40008A150A128A1586220A128A15831203132C
:101C50005F16823083160313B300DD30B200B20B7F
:101C60002F2EB30B2F2E053083160313B20032082C
:101C7000A000FA30B3003308A10002300A128A151E
:101C800073230A128A15432E0230FA000030FB003B
:101C90000A128A15D0240A128A1583120313A3008C
:101CA0002308A400AA302406031908000230FA0011
:101CB0000030FB00AA30A3002308FC000A128A159A
:101CC00016250A128A150330FA000030FB00FC01C9
:101CD0000A128A1516250A128A150A30FA000030EF
:101CE000FB00FC010A128A1516250A128A150B3010
:101CF000FA000030FB00FC010A128A1516250A12B0
:101D00008A150C30FA000030FB00FC010A128A151B
:101D100016250A128A150D30FA000030FB00FC016E
:101D20000A128A15162508000A128A15C4220A12F8
:101D30008A15F001F00A80300A128A15FB230A1274
:101D40008A15F001F00AE3300A128A15FB230A1201
:101D50008A150A128A150A230A128A15F001F00A56
:101D600081300A128A15FB230A128A1501300A12E1
:101D70008A15ED260A128A15FC007C0883120313CB
:101D8000A00003300A128A15ED260A128A15FC00FB
:101D90007C0883120313A1000A128A15E72283121A
:101DA00003132008FC00FD017C08A2007D08A300AD
:101DB0002208FD00FC017C08A2007D08A300210888
:101DC000FC00FD017C08A2070318A30A7D08A307F5
:101DD0002308FB002208FA000800F900831203130D
:101DE000DF107918DF147903031DF92E8312031312
:101DF0005F1003307906031D002F831203135F1455
:101E00008316031311080139F000110C0139F10098
:101E1000110CF200F20C720C0139F300110E0139B1
:101E2000F400110CF500750C0139F600140CF700E4
:101E3000770C013976047404730471047004031D73
:101E4000002F9115141C222F83128C1D242F5F1C30
:101E50002D2F831603139116302F8316031391121F
:101E600083120313DF1C382F8316031311163B2F25
:101E7000831603131112831203131308F000700862
:101E8000F800831603131418412F78080800023055
:101E900083160313AA000030AB000A128A155E25D0
:101EA0000A128A1583160313B0003008B100AA3055
:101EB0003106031908000230AA000030AB00AA3036
:101EC000B0003008AC000A128A15A8250A128A153B
:101ED000033083160313AA000030AB00AC010A12D2
:101EE0008A15A8250A128A150A3083160313AA0038
:101EF0000030AB00AC010A128A15A8250A128A1517
:101F00000B3083160313AA000030AB00AC010A1299
:101F10008A15A8250A128A150C3083160313AA0005
:101F20000030AB00AC010A128A15A8250A128A15E6
:101F30000D3083160313AA000030AB00AC010A1267
:101F40008A15A825080083120313A201A3010A120F
:101F50008A15C4220A128A15F001F00A80300A128A
:101F60008A15FB230A128A15F001F00AE5300A12DD
:101F70008A15FB230A128A150A128A150A230A12E5
:101F80008A15F001F00A81300A128A15FB230A1221
:101F90008A1501300A128A15ED260A128A15FC00EC
:101FA0007C0883120313A00003300A128A15ED2661
:101FB0000A128A15FC007C0883120313A1000A127E
:101FC0008A15E722831203132008FC00FD017C0818
:101FD000A2007D08A3002208FD00FC017C08A200ED
:101FE0007D08A3002108FC00FD017C08A20703185E
:101FF000A30A7D08A3072308FB002208FA000800B3
:04400E00F4ECFFFED1
:00000001FF
